{
	"simple-token/appointment.sol": {
		"CalendlyDApp": {
			"abi": [
				{
					"inputs": [
						{
							"internalType": "uint256",
							"name": "_depositAmount",
							"type": "uint256"
						}
					],
					"stateMutability": "nonpayable",
					"type": "constructor"
				},
				{
					"anonymous": false,
					"inputs": [
						{
							"indexed": false,
							"internalType": "uint256",
							"name": "appointmentId",
							"type": "uint256"
						},
						{
							"indexed": false,
							"internalType": "address",
							"name": "client",
							"type": "address"
						}
					],
					"name": "AppointmentAttended",
					"type": "event"
				},
				{
					"anonymous": false,
					"inputs": [
						{
							"indexed": false,
							"internalType": "uint256",
							"name": "appointmentId",
							"type": "uint256"
						},
						{
							"indexed": false,
							"internalType": "address",
							"name": "client",
							"type": "address"
						},
						{
							"indexed": false,
							"internalType": "uint256",
							"name": "startTime",
							"type": "uint256"
						},
						{
							"indexed": false,
							"internalType": "uint256",
							"name": "deposit",
							"type": "uint256"
						}
					],
					"name": "AppointmentBooked",
					"type": "event"
				},
				{
					"anonymous": false,
					"inputs": [
						{
							"indexed": false,
							"internalType": "uint256",
							"name": "appointmentId",
							"type": "uint256"
						},
						{
							"indexed": false,
							"internalType": "address",
							"name": "client",
							"type": "address"
						},
						{
							"indexed": false,
							"internalType": "uint256",
							"name": "deposit",
							"type": "uint256"
						}
					],
					"name": "DepositRefunded",
					"type": "event"
				},
				{
					"inputs": [],
					"name": "appointmentCount",
					"outputs": [
						{
							"internalType": "uint256",
							"name": "",
							"type": "uint256"
						}
					],
					"stateMutability": "view",
					"type": "function"
				},
				{
					"inputs": [
						{
							"internalType": "uint256",
							"name": "",
							"type": "uint256"
						}
					],
					"name": "appointments",
					"outputs": [
						{
							"internalType": "address payable",
							"name": "client",
							"type": "address"
						},
						{
							"internalType": "uint256",
							"name": "deposit",
							"type": "uint256"
						},
						{
							"internalType": "uint256",
							"name": "startTime",
							"type": "uint256"
						},
						{
							"internalType": "bool",
							"name": "attended",
							"type": "bool"
						}
					],
					"stateMutability": "view",
					"type": "function"
				},
				{
					"inputs": [
						{
							"internalType": "uint256",
							"name": "_startTime",
							"type": "uint256"
						}
					],
					"name": "bookAppointment",
					"outputs": [],
					"stateMutability": "payable",
					"type": "function"
				},
				{
					"inputs": [],
					"name": "depositAmount",
					"outputs": [
						{
							"internalType": "uint256",
							"name": "",
							"type": "uint256"
						}
					],
					"stateMutability": "view",
					"type": "function"
				},
				{
					"inputs": [
						{
							"internalType": "uint256",
							"name": "_appointmentId",
							"type": "uint256"
						}
					],
					"name": "markAsAttended",
					"outputs": [],
					"stateMutability": "nonpayable",
					"type": "function"
				},
				{
					"inputs": [],
					"name": "owner",
					"outputs": [
						{
							"internalType": "address payable",
							"name": "",
							"type": "address"
						}
					],
					"stateMutability": "view",
					"type": "function"
				},
				{
					"inputs": [
						{
							"internalType": "uint256",
							"name": "_appointmentId",
							"type": "uint256"
						}
					],
					"name": "resolveAppointment",
					"outputs": [],
					"stateMutability": "nonpayable",
					"type": "function"
				}
			],
			"devdoc": {
				"kind": "dev",
				"methods": {},
				"version": 1
			},
			"evm": {
				"assembly": "    /* \"simple-token/appointment.sol\":57:2468  contract CalendlyDApp {... */\n  mstore(0x40, 0x80)\n    /* \"simple-token/appointment.sol\":645:765  constructor(uint256 _depositAmount) {... */\n  callvalue\n  dup1\n  iszero\n  tag_1\n  jumpi\n  0x00\n  dup1\n  revert\ntag_1:\n  pop\n  mload(0x40)\n  sub(codesize, bytecodeSize)\n  dup1\n  bytecodeSize\n  dup4\n  codecopy\n  dup2\n  dup2\n  add\n  0x40\n  mstore\n  dup2\n  add\n  swap1\n  tag_2\n  swap2\n  swap1\n  tag_3\n  jump\t// in\ntag_2:\n    /* \"simple-token/appointment.sol\":707:717  msg.sender */\n  caller\n    /* \"simple-token/appointment.sol\":691:696  owner */\n  0x00\n  dup1\n    /* \"simple-token/appointment.sol\":691:718  owner = payable(msg.sender) */\n  0x0100\n  exp\n  dup2\n  sload\n  dup2\n  0xffffffffffffffffffffffffffffffffffffffff\n  mul\n  not\n  and\n  swap1\n  dup4\n  0xffffffffffffffffffffffffffffffffffffffff\n  and\n  mul\n  or\n  swap1\n  sstore\n  pop\n    /* \"simple-token/appointment.sol\":744:758  _depositAmount */\n  dup1\n    /* \"simple-token/appointment.sol\":728:741  depositAmount */\n  0x01\n    /* \"simple-token/appointment.sol\":728:758  depositAmount = _depositAmount */\n  dup2\n  swap1\n  sstore\n  pop\n    /* \"simple-token/appointment.sol\":645:765  constructor(uint256 _depositAmount) {... */\n  pop\n    /* \"simple-token/appointment.sol\":57:2468  contract CalendlyDApp {... */\n  jump(tag_6)\n    /* \"#utility.yul\":88:205   */\ntag_8:\n    /* \"#utility.yul\":197:198   */\n  0x00\n    /* \"#utility.yul\":194:195   */\n  dup1\n    /* \"#utility.yul\":187:199   */\n  revert\n    /* \"#utility.yul\":334:411   */\ntag_10:\n    /* \"#utility.yul\":371:378   */\n  0x00\n    /* \"#utility.yul\":400:405   */\n  dup2\n    /* \"#utility.yul\":389:405   */\n  swap1\n  pop\n    /* \"#utility.yul\":334:411   */\n  swap2\n  swap1\n  pop\n  jump\t// out\n    /* \"#utility.yul\":417:539   */\ntag_11:\n    /* \"#utility.yul\":490:514   */\n  tag_19\n    /* \"#utility.yul\":508:513   */\n  dup2\n    /* \"#utility.yul\":490:514   */\n  tag_10\n  jump\t// in\ntag_19:\n    /* \"#utility.yul\":483:488   */\n  dup2\n    /* \"#utility.yul\":480:515   */\n  eq\n    /* \"#utility.yul\":470:533   */\n  tag_20\n  jumpi\n    /* \"#utility.yul\":529:530   */\n  0x00\n    /* \"#utility.yul\":526:527   */\n  dup1\n    /* \"#utility.yul\":519:531   */\n  revert\n    /* \"#utility.yul\":470:533   */\ntag_20:\n    /* \"#utility.yul\":417:539   */\n  pop\n  jump\t// out\n    /* \"#utility.yul\":545:688   */\ntag_12:\n    /* \"#utility.yul\":602:607   */\n  0x00\n    /* \"#utility.yul\":633:639   */\n  dup2\n    /* \"#utility.yul\":627:640   */\n  mload\n    /* \"#utility.yul\":618:640   */\n  swap1\n  pop\n    /* \"#utility.yul\":649:682   */\n  tag_22\n    /* \"#utility.yul\":676:681   */\n  dup2\n    /* \"#utility.yul\":649:682   */\n  tag_11\n  jump\t// in\ntag_22:\n    /* \"#utility.yul\":545:688   */\n  swap3\n  swap2\n  pop\n  pop\n  jump\t// out\n    /* \"#utility.yul\":694:1045   */\ntag_3:\n    /* \"#utility.yul\":764:770   */\n  0x00\n    /* \"#utility.yul\":813:815   */\n  0x20\n    /* \"#utility.yul\":801:810   */\n  dup3\n    /* \"#utility.yul\":792:799   */\n  dup5\n    /* \"#utility.yul\":788:811   */\n  sub\n    /* \"#utility.yul\":784:816   */\n  slt\n    /* \"#utility.yul\":781:900   */\n  iszero\n  tag_24\n  jumpi\n    /* \"#utility.yul\":819:898   */\n  tag_25\n  tag_8\n  jump\t// in\ntag_25:\n    /* \"#utility.yul\":781:900   */\ntag_24:\n    /* \"#utility.yul\":939:940   */\n  0x00\n    /* \"#utility.yul\":964:1028   */\n  tag_26\n    /* \"#utility.yul\":1020:1027   */\n  dup5\n    /* \"#utility.yul\":1011:1017   */\n  dup3\n    /* \"#utility.yul\":1000:1009   */\n  dup6\n    /* \"#utility.yul\":996:1018   */\n  add\n    /* \"#utility.yul\":964:1028   */\n  tag_12\n  jump\t// in\ntag_26:\n    /* \"#utility.yul\":954:1028   */\n  swap2\n  pop\n    /* \"#utility.yul\":910:1038   */\n  pop\n    /* \"#utility.yul\":694:1045   */\n  swap3\n  swap2\n  pop\n  pop\n  jump\t// out\n    /* \"simple-token/appointment.sol\":57:2468  contract CalendlyDApp {... */\ntag_6:\n  dataSize(sub_0)\n  dup1\n  dataOffset(sub_0)\n  0x00\n  codecopy\n  0x00\n  return\nstop\n\nsub_0: assembly {\n        /* \"simple-token/appointment.sol\":57:2468  contract CalendlyDApp {... */\n      mstore(0x40, 0x80)\n      jumpi(tag_1, lt(calldatasize, 0x04))\n      shr(0xe0, calldataload(0x00))\n      dup1\n      0x8da5cb5b\n      gt\n      tag_9\n      jumpi\n      dup1\n      0x8da5cb5b\n      eq\n      tag_5\n      jumpi\n      dup1\n      0xa901a3d7\n      eq\n      tag_6\n      jumpi\n      dup1\n      0xc645e739\n      eq\n      tag_7\n      jumpi\n      dup1\n      0xeebc3fb2\n      eq\n      tag_8\n      jumpi\n      jump(tag_1)\n    tag_9:\n      dup1\n      0x12dc9013\n      eq\n      tag_2\n      jumpi\n      dup1\n      0x419759f5\n      eq\n      tag_3\n      jumpi\n      dup1\n      0x78e8faa6\n      eq\n      tag_4\n      jumpi\n    tag_1:\n      0x00\n      dup1\n      revert\n        /* \"simple-token/appointment.sol\":292:343  mapping(uint256 => Appointment) public appointments */\n    tag_2:\n      callvalue\n      dup1\n      iszero\n      tag_10\n      jumpi\n      0x00\n      dup1\n      revert\n    tag_10:\n      pop\n      tag_11\n      0x04\n      dup1\n      calldatasize\n      sub\n      dup2\n      add\n      swap1\n      tag_12\n      swap2\n      swap1\n      tag_13\n      jump\t// in\n    tag_12:\n      tag_14\n      jump\t// in\n    tag_11:\n      mload(0x40)\n      tag_15\n      swap5\n      swap4\n      swap3\n      swap2\n      swap1\n      tag_16\n      jump\t// in\n    tag_15:\n      mload(0x40)\n      dup1\n      swap2\n      sub\n      swap1\n      return\n        /* \"simple-token/appointment.sol\":258:286  uint256 public depositAmount */\n    tag_3:\n      callvalue\n      dup1\n      iszero\n      tag_17\n      jumpi\n      0x00\n      dup1\n      revert\n    tag_17:\n      pop\n      tag_18\n      tag_19\n      jump\t// in\n    tag_18:\n      mload(0x40)\n      tag_20\n      swap2\n      swap1\n      tag_21\n      jump\t// in\n    tag_20:\n      mload(0x40)\n      dup1\n      swap2\n      sub\n      swap1\n      return\n        /* \"simple-token/appointment.sol\":1827:2466  function resolveAppointment(uint256 _appointmentId) public {... */\n    tag_4:\n      callvalue\n      dup1\n      iszero\n      tag_22\n      jumpi\n      0x00\n      dup1\n      revert\n    tag_22:\n      pop\n      tag_23\n      0x04\n      dup1\n      calldatasize\n      sub\n      dup2\n      add\n      swap1\n      tag_24\n      swap2\n      swap1\n      tag_13\n      jump\t// in\n    tag_24:\n      tag_25\n      jump\t// in\n    tag_23:\n      stop\n        /* \"simple-token/appointment.sol\":224:252  address payable public owner */\n    tag_5:\n      callvalue\n      dup1\n      iszero\n      tag_26\n      jumpi\n      0x00\n      dup1\n      revert\n    tag_26:\n      pop\n      tag_27\n      tag_28\n      jump\t// in\n    tag_27:\n      mload(0x40)\n      tag_29\n      swap2\n      swap1\n      tag_30\n      jump\t// in\n    tag_29:\n      mload(0x40)\n      dup1\n      swap2\n      sub\n      swap1\n      return\n        /* \"simple-token/appointment.sol\":1342:1756  function markAsAttended(uint256 _appointmentId) public {... */\n    tag_6:\n      callvalue\n      dup1\n      iszero\n      tag_31\n      jumpi\n      0x00\n      dup1\n      revert\n    tag_31:\n      pop\n      tag_32\n      0x04\n      dup1\n      calldatasize\n      sub\n      dup2\n      add\n      swap1\n      tag_33\n      swap2\n      swap1\n      tag_13\n      jump\t// in\n    tag_33:\n      tag_34\n      jump\t// in\n    tag_32:\n      stop\n        /* \"simple-token/appointment.sol\":827:1287  function bookAppointment(uint256 _startTime) public payable {... */\n    tag_7:\n      tag_35\n      0x04\n      dup1\n      calldatasize\n      sub\n      dup2\n      add\n      swap1\n      tag_36\n      swap2\n      swap1\n      tag_13\n      jump\t// in\n    tag_36:\n      tag_37\n      jump\t// in\n    tag_35:\n      stop\n        /* \"simple-token/appointment.sol\":349:380  uint256 public appointmentCount */\n    tag_8:\n      callvalue\n      dup1\n      iszero\n      tag_38\n      jumpi\n      0x00\n      dup1\n      revert\n    tag_38:\n      pop\n      tag_39\n      tag_40\n      jump\t// in\n    tag_39:\n      mload(0x40)\n      tag_41\n      swap2\n      swap1\n      tag_21\n      jump\t// in\n    tag_41:\n      mload(0x40)\n      dup1\n      swap2\n      sub\n      swap1\n      return\n        /* \"simple-token/appointment.sol\":292:343  mapping(uint256 => Appointment) public appointments */\n    tag_14:\n      mstore(0x20, 0x02)\n      dup1\n      0x00\n      mstore\n      keccak256(0x00, 0x40)\n      0x00\n      swap2\n      pop\n      swap1\n      pop\n      dup1\n      0x00\n      add\n      0x00\n      swap1\n      sload\n      swap1\n      0x0100\n      exp\n      swap1\n      div\n      0xffffffffffffffffffffffffffffffffffffffff\n      and\n      swap1\n      dup1\n      0x01\n      add\n      sload\n      swap1\n      dup1\n      0x02\n      add\n      sload\n      swap1\n      dup1\n      0x03\n      add\n      0x00\n      swap1\n      sload\n      swap1\n      0x0100\n      exp\n      swap1\n      div\n      0xff\n      and\n      swap1\n      pop\n      dup5\n      jump\t// out\n        /* \"simple-token/appointment.sol\":258:286  uint256 public depositAmount */\n    tag_19:\n      sload(0x01)\n      dup2\n      jump\t// out\n        /* \"simple-token/appointment.sol\":1827:2466  function resolveAppointment(uint256 _appointmentId) public {... */\n    tag_25:\n        /* \"simple-token/appointment.sol\":1896:1927  Appointment storage appointment */\n      0x00\n        /* \"simple-token/appointment.sol\":1930:1942  appointments */\n      0x02\n        /* \"simple-token/appointment.sol\":1930:1958  appointments[_appointmentId] */\n      0x00\n        /* \"simple-token/appointment.sol\":1943:1957  _appointmentId */\n      dup4\n        /* \"simple-token/appointment.sol\":1930:1958  appointments[_appointmentId] */\n      dup2\n      mstore\n      0x20\n      add\n      swap1\n      dup2\n      mstore\n      0x20\n      add\n      0x00\n      keccak256\n        /* \"simple-token/appointment.sol\":1896:1958  Appointment storage appointment = appointments[_appointmentId] */\n      swap1\n      pop\n        /* \"simple-token/appointment.sol\":2018:2025  1 hours */\n      0x0e10\n        /* \"simple-token/appointment.sol\":1994:2005  appointment */\n      dup2\n        /* \"simple-token/appointment.sol\":1994:2015  appointment.startTime */\n      0x02\n      add\n      sload\n        /* \"simple-token/appointment.sol\":1994:2025  appointment.startTime + 1 hours */\n      tag_43\n      swap2\n      swap1\n      tag_44\n      jump\t// in\n    tag_43:\n        /* \"simple-token/appointment.sol\":1976:1991  block.timestamp */\n      timestamp\n        /* \"simple-token/appointment.sol\":1976:2025  block.timestamp > appointment.startTime + 1 hours */\n      gt\n        /* \"simple-token/appointment.sol\":1968:2057  require(block.timestamp > appointment.startTime + 1 hours, \"Appointment time not passed\") */\n      tag_45\n      jumpi\n      mload(0x40)\n      0x08c379a000000000000000000000000000000000000000000000000000000000\n      dup2\n      mstore\n      0x04\n      add\n      tag_46\n      swap1\n      tag_47\n      jump\t// in\n    tag_46:\n      mload(0x40)\n      dup1\n      swap2\n      sub\n      swap1\n      revert\n    tag_45:\n        /* \"simple-token/appointment.sol\":2097:2107  msg.sender */\n      caller\n        /* \"simple-token/appointment.sol\":2075:2107  appointment.client == msg.sender */\n      0xffffffffffffffffffffffffffffffffffffffff\n      and\n        /* \"simple-token/appointment.sol\":2075:2086  appointment */\n      dup2\n        /* \"simple-token/appointment.sol\":2075:2093  appointment.client */\n      0x00\n      add\n      0x00\n      swap1\n      sload\n      swap1\n      0x0100\n      exp\n      swap1\n      div\n      0xffffffffffffffffffffffffffffffffffffffff\n      and\n        /* \"simple-token/appointment.sol\":2075:2107  appointment.client == msg.sender */\n      0xffffffffffffffffffffffffffffffffffffffff\n      and\n      eq\n        /* \"simple-token/appointment.sol\":2075:2130  appointment.client == msg.sender || msg.sender == owner */\n      dup1\n      tag_48\n      jumpi\n      pop\n        /* \"simple-token/appointment.sol\":2125:2130  owner */\n      0x00\n      dup1\n      sload\n      swap1\n      0x0100\n      exp\n      swap1\n      div\n      0xffffffffffffffffffffffffffffffffffffffff\n      and\n        /* \"simple-token/appointment.sol\":2111:2130  msg.sender == owner */\n      0xffffffffffffffffffffffffffffffffffffffff\n      and\n        /* \"simple-token/appointment.sol\":2111:2121  msg.sender */\n      caller\n        /* \"simple-token/appointment.sol\":2111:2130  msg.sender == owner */\n      0xffffffffffffffffffffffffffffffffffffffff\n      and\n      eq\n        /* \"simple-token/appointment.sol\":2075:2130  appointment.client == msg.sender || msg.sender == owner */\n    tag_48:\n        /* \"simple-token/appointment.sol\":2067:2147  require(appointment.client == msg.sender || msg.sender == owner, \"Unauthorized\") */\n      tag_49\n      jumpi\n      mload(0x40)\n      0x08c379a000000000000000000000000000000000000000000000000000000000\n      dup2\n      mstore\n      0x04\n      add\n      tag_50\n      swap1\n      tag_51\n      jump\t// in\n    tag_50:\n      mload(0x40)\n      dup1\n      swap2\n      sub\n      swap1\n      revert\n    tag_49:\n        /* \"simple-token/appointment.sol\":2162:2173  appointment */\n      dup1\n        /* \"simple-token/appointment.sol\":2162:2182  appointment.attended */\n      0x03\n      add\n      0x00\n      swap1\n      sload\n      swap1\n      0x0100\n      exp\n      swap1\n      div\n      0xff\n      and\n        /* \"simple-token/appointment.sol\":2158:2414  if (appointment.attended) {... */\n      iszero\n      tag_52\n      jumpi\n        /* \"simple-token/appointment.sol\":2198:2209  appointment */\n      dup1\n        /* \"simple-token/appointment.sol\":2198:2216  appointment.client */\n      0x00\n      add\n      0x00\n      swap1\n      sload\n      swap1\n      0x0100\n      exp\n      swap1\n      div\n      0xffffffffffffffffffffffffffffffffffffffff\n      and\n        /* \"simple-token/appointment.sol\":2198:2225  appointment.client.transfer */\n      0xffffffffffffffffffffffffffffffffffffffff\n      and\n        /* \"simple-token/appointment.sol\":2198:2246  appointment.client.transfer(appointment.deposit) */\n      0x08fc\n        /* \"simple-token/appointment.sol\":2226:2237  appointment */\n      dup3\n        /* \"simple-token/appointment.sol\":2226:2245  appointment.deposit */\n      0x01\n      add\n      sload\n        /* \"simple-token/appointment.sol\":2198:2246  appointment.client.transfer(appointment.deposit) */\n      swap1\n      dup2\n      iszero\n      mul\n      swap1\n      mload(0x40)\n      0x00\n      mload(0x40)\n      dup1\n      dup4\n      sub\n      dup2\n      dup6\n      dup9\n      dup9\n      call\n      swap4\n      pop\n      pop\n      pop\n      pop\n      iszero\n      dup1\n      iszero\n      tag_54\n      jumpi\n      returndatasize\n      0x00\n      dup1\n      returndatacopy\n      revert(0x00, returndatasize)\n    tag_54:\n      pop\n        /* \"simple-token/appointment.sol\":2265:2337  DepositRefunded(_appointmentId, appointment.client, appointment.deposit) */\n      0x69187e59ebb7ab44cba5434886e4e6cde1412568f3483279dc99de772cb25405\n        /* \"simple-token/appointment.sol\":2281:2295  _appointmentId */\n      dup3\n        /* \"simple-token/appointment.sol\":2297:2308  appointment */\n      dup3\n        /* \"simple-token/appointment.sol\":2297:2315  appointment.client */\n      0x00\n      add\n      0x00\n      swap1\n      sload\n      swap1\n      0x0100\n      exp\n      swap1\n      div\n      0xffffffffffffffffffffffffffffffffffffffff\n      and\n        /* \"simple-token/appointment.sol\":2317:2328  appointment */\n      dup4\n        /* \"simple-token/appointment.sol\":2317:2336  appointment.deposit */\n      0x01\n      add\n      sload\n        /* \"simple-token/appointment.sol\":2265:2337  DepositRefunded(_appointmentId, appointment.client, appointment.deposit) */\n      mload(0x40)\n      tag_55\n      swap4\n      swap3\n      swap2\n      swap1\n      tag_56\n      jump\t// in\n    tag_55:\n      mload(0x40)\n      dup1\n      swap2\n      sub\n      swap1\n      log1\n        /* \"simple-token/appointment.sol\":2158:2414  if (appointment.attended) {... */\n      jump(tag_57)\n    tag_52:\n        /* \"simple-token/appointment.sol\":2368:2373  owner */\n      0x00\n      dup1\n      sload\n      swap1\n      0x0100\n      exp\n      swap1\n      div\n      0xffffffffffffffffffffffffffffffffffffffff\n      and\n        /* \"simple-token/appointment.sol\":2368:2382  owner.transfer */\n      0xffffffffffffffffffffffffffffffffffffffff\n      and\n        /* \"simple-token/appointment.sol\":2368:2403  owner.transfer(appointment.deposit) */\n      0x08fc\n        /* \"simple-token/appointment.sol\":2383:2394  appointment */\n      dup3\n        /* \"simple-token/appointment.sol\":2383:2402  appointment.deposit */\n      0x01\n      add\n      sload\n        /* \"simple-token/appointment.sol\":2368:2403  owner.transfer(appointment.deposit) */\n      swap1\n      dup2\n      iszero\n      mul\n      swap1\n      mload(0x40)\n      0x00\n      mload(0x40)\n      dup1\n      dup4\n      sub\n      dup2\n      dup6\n      dup9\n      dup9\n      call\n      swap4\n      pop\n      pop\n      pop\n      pop\n      iszero\n      dup1\n      iszero\n      tag_59\n      jumpi\n      returndatasize\n      0x00\n      dup1\n      returndatacopy\n      revert(0x00, returndatasize)\n    tag_59:\n      pop\n        /* \"simple-token/appointment.sol\":2158:2414  if (appointment.attended) {... */\n    tag_57:\n        /* \"simple-token/appointment.sol\":2431:2443  appointments */\n      0x02\n        /* \"simple-token/appointment.sol\":2431:2459  appointments[_appointmentId] */\n      0x00\n        /* \"simple-token/appointment.sol\":2444:2458  _appointmentId */\n      dup4\n        /* \"simple-token/appointment.sol\":2431:2459  appointments[_appointmentId] */\n      dup2\n      mstore\n      0x20\n      add\n      swap1\n      dup2\n      mstore\n      0x20\n      add\n      0x00\n      keccak256\n      0x00\n        /* \"simple-token/appointment.sol\":2424:2459  delete appointments[_appointmentId] */\n      dup1\n      dup3\n      add\n      exp(0x0100, 0x00)\n      dup2\n      sload\n      swap1\n      0xffffffffffffffffffffffffffffffffffffffff\n      mul\n      not\n      and\n      swap1\n      sstore\n      0x01\n      dup3\n      add\n      0x00\n      swap1\n      sstore\n      0x02\n      dup3\n      add\n      0x00\n      swap1\n      sstore\n      0x03\n      dup3\n      add\n      exp(0x0100, 0x00)\n      dup2\n      sload\n      swap1\n      0xff\n      mul\n      not\n      and\n      swap1\n      sstore\n      pop\n      pop\n        /* \"simple-token/appointment.sol\":1886:2466  {... */\n      pop\n        /* \"simple-token/appointment.sol\":1827:2466  function resolveAppointment(uint256 _appointmentId) public {... */\n      pop\n      jump\t// out\n        /* \"simple-token/appointment.sol\":224:252  address payable public owner */\n    tag_28:\n      0x00\n      dup1\n      sload\n      swap1\n      0x0100\n      exp\n      swap1\n      div\n      0xffffffffffffffffffffffffffffffffffffffff\n      and\n      dup2\n      jump\t// out\n        /* \"simple-token/appointment.sol\":1342:1756  function markAsAttended(uint256 _appointmentId) public {... */\n    tag_34:\n        /* \"simple-token/appointment.sol\":1407:1438  Appointment storage appointment */\n      0x00\n        /* \"simple-token/appointment.sol\":1441:1453  appointments */\n      0x02\n        /* \"simple-token/appointment.sol\":1441:1469  appointments[_appointmentId] */\n      0x00\n        /* \"simple-token/appointment.sol\":1454:1468  _appointmentId */\n      dup4\n        /* \"simple-token/appointment.sol\":1441:1469  appointments[_appointmentId] */\n      dup2\n      mstore\n      0x20\n      add\n      swap1\n      dup2\n      mstore\n      0x20\n      add\n      0x00\n      keccak256\n        /* \"simple-token/appointment.sol\":1407:1469  Appointment storage appointment = appointments[_appointmentId] */\n      swap1\n      pop\n        /* \"simple-token/appointment.sol\":1501:1506  owner */\n      0x00\n      dup1\n      sload\n      swap1\n      0x0100\n      exp\n      swap1\n      div\n      0xffffffffffffffffffffffffffffffffffffffff\n      and\n        /* \"simple-token/appointment.sol\":1487:1506  msg.sender == owner */\n      0xffffffffffffffffffffffffffffffffffffffff\n      and\n        /* \"simple-token/appointment.sol\":1487:1497  msg.sender */\n      caller\n        /* \"simple-token/appointment.sol\":1487:1506  msg.sender == owner */\n      0xffffffffffffffffffffffffffffffffffffffff\n      and\n      eq\n        /* \"simple-token/appointment.sol\":1479:1545  require(msg.sender == owner, \"Only the owner can mark attendance\") */\n      tag_61\n      jumpi\n      mload(0x40)\n      0x08c379a000000000000000000000000000000000000000000000000000000000\n      dup2\n      mstore\n      0x04\n      add\n      tag_62\n      swap1\n      tag_63\n      jump\t// in\n    tag_62:\n      mload(0x40)\n      dup1\n      swap2\n      sub\n      swap1\n      revert\n    tag_61:\n        /* \"simple-token/appointment.sol\":1588:1603  block.timestamp */\n      timestamp\n        /* \"simple-token/appointment.sol\":1563:1574  appointment */\n      dup2\n        /* \"simple-token/appointment.sol\":1563:1584  appointment.startTime */\n      0x02\n      add\n      sload\n        /* \"simple-token/appointment.sol\":1563:1603  appointment.startTime <= block.timestamp */\n      gt\n      iszero\n        /* \"simple-token/appointment.sol\":1555:1641  require(appointment.startTime <= block.timestamp, \"Appointment time has not yet come\") */\n      tag_64\n      jumpi\n      mload(0x40)\n      0x08c379a000000000000000000000000000000000000000000000000000000000\n      dup2\n      mstore\n      0x04\n      add\n      tag_65\n      swap1\n      tag_66\n      jump\t// in\n    tag_65:\n      mload(0x40)\n      dup1\n      swap2\n      sub\n      swap1\n      revert\n    tag_64:\n        /* \"simple-token/appointment.sol\":1675:1679  true */\n      0x01\n        /* \"simple-token/appointment.sol\":1652:1663  appointment */\n      dup2\n        /* \"simple-token/appointment.sol\":1652:1672  appointment.attended */\n      0x03\n      add\n      0x00\n        /* \"simple-token/appointment.sol\":1652:1679  appointment.attended = true */\n      0x0100\n      exp\n      dup2\n      sload\n      dup2\n      0xff\n      mul\n      not\n      and\n      swap1\n      dup4\n      iszero\n      iszero\n      mul\n      or\n      swap1\n      sstore\n      pop\n        /* \"simple-token/appointment.sol\":1694:1749  AppointmentAttended(_appointmentId, appointment.client) */\n      0xe3a8741f0a96c7a61f28b5cdbc83f74840a063f631d17bf44e03c098d799d02e\n        /* \"simple-token/appointment.sol\":1714:1728  _appointmentId */\n      dup3\n        /* \"simple-token/appointment.sol\":1730:1741  appointment */\n      dup3\n        /* \"simple-token/appointment.sol\":1730:1748  appointment.client */\n      0x00\n      add\n      0x00\n      swap1\n      sload\n      swap1\n      0x0100\n      exp\n      swap1\n      div\n      0xffffffffffffffffffffffffffffffffffffffff\n      and\n        /* \"simple-token/appointment.sol\":1694:1749  AppointmentAttended(_appointmentId, appointment.client) */\n      mload(0x40)\n      tag_67\n      swap3\n      swap2\n      swap1\n      tag_68\n      jump\t// in\n    tag_67:\n      mload(0x40)\n      dup1\n      swap2\n      sub\n      swap1\n      log1\n        /* \"simple-token/appointment.sol\":1397:1756  {... */\n      pop\n        /* \"simple-token/appointment.sol\":1342:1756  function markAsAttended(uint256 _appointmentId) public {... */\n      pop\n      jump\t// out\n        /* \"simple-token/appointment.sol\":827:1287  function bookAppointment(uint256 _startTime) public payable {... */\n    tag_37:\n        /* \"simple-token/appointment.sol\":918:931  depositAmount */\n      sload(0x01)\n        /* \"simple-token/appointment.sol\":905:914  msg.value */\n      callvalue\n        /* \"simple-token/appointment.sol\":905:931  msg.value == depositAmount */\n      eq\n        /* \"simple-token/appointment.sol\":897:962  require(msg.value == depositAmount, \"Deposit amount not correct\") */\n      tag_70\n      jumpi\n      mload(0x40)\n      0x08c379a000000000000000000000000000000000000000000000000000000000\n      dup2\n      mstore\n      0x04\n      add\n      tag_71\n      swap1\n      tag_72\n      jump\t// in\n    tag_71:\n      mload(0x40)\n      dup1\n      swap2\n      sub\n      swap1\n      revert\n    tag_70:\n        /* \"simple-token/appointment.sol\":973:989  appointmentCount */\n      0x03\n      0x00\n        /* \"simple-token/appointment.sol\":973:991  appointmentCount++ */\n      dup2\n      sload\n      dup1\n      swap3\n      swap2\n      swap1\n      tag_73\n      swap1\n      tag_74\n      jump\t// in\n    tag_73:\n      swap2\n      swap1\n      pop\n      sstore\n      pop\n        /* \"simple-token/appointment.sol\":1034:1194  Appointment({... */\n      mload(0x40)\n      dup1\n      0x80\n      add\n      0x40\n      mstore\n      dup1\n        /* \"simple-token/appointment.sol\":1076:1086  msg.sender */\n      caller\n        /* \"simple-token/appointment.sol\":1034:1194  Appointment({... */\n      0xffffffffffffffffffffffffffffffffffffffff\n      and\n      dup2\n      mstore\n      0x20\n      add\n        /* \"simple-token/appointment.sol\":1110:1119  msg.value */\n      callvalue\n        /* \"simple-token/appointment.sol\":1034:1194  Appointment({... */\n      dup2\n      mstore\n      0x20\n      add\n        /* \"simple-token/appointment.sol\":1144:1154  _startTime */\n      dup3\n        /* \"simple-token/appointment.sol\":1034:1194  Appointment({... */\n      dup2\n      mstore\n      0x20\n      add\n        /* \"simple-token/appointment.sol\":1178:1183  false */\n      0x00\n        /* \"simple-token/appointment.sol\":1034:1194  Appointment({... */\n      iszero\n      iszero\n      dup2\n      mstore\n      pop\n        /* \"simple-token/appointment.sol\":1001:1013  appointments */\n      0x02\n        /* \"simple-token/appointment.sol\":1001:1031  appointments[appointmentCount] */\n      0x00\n        /* \"simple-token/appointment.sol\":1014:1030  appointmentCount */\n      sload(0x03)\n        /* \"simple-token/appointment.sol\":1001:1031  appointments[appointmentCount] */\n      dup2\n      mstore\n      0x20\n      add\n      swap1\n      dup2\n      mstore\n      0x20\n      add\n      0x00\n      keccak256\n        /* \"simple-token/appointment.sol\":1001:1194  appointments[appointmentCount] = Appointment({... */\n      0x00\n      dup3\n      add\n      mload\n      dup2\n      0x00\n      add\n      exp(0x0100, 0x00)\n      dup2\n      sload\n      dup2\n      0xffffffffffffffffffffffffffffffffffffffff\n      mul\n      not\n      and\n      swap1\n      dup4\n      0xffffffffffffffffffffffffffffffffffffffff\n      and\n      mul\n      or\n      swap1\n      sstore\n      pop\n      0x20\n      dup3\n      add\n      mload\n      dup2\n      0x01\n      add\n      sstore\n      0x40\n      dup3\n      add\n      mload\n      dup2\n      0x02\n      add\n      sstore\n      0x60\n      dup3\n      add\n      mload\n      dup2\n      0x03\n      add\n      exp(0x0100, 0x00)\n      dup2\n      sload\n      dup2\n      0xff\n      mul\n      not\n      and\n      swap1\n      dup4\n      iszero\n      iszero\n      mul\n      or\n      swap1\n      sstore\n      pop\n      swap1\n      pop\n      pop\n        /* \"simple-token/appointment.sol\":1210:1280  AppointmentBooked(appointmentCount, msg.sender, _startTime, msg.value) */\n      0x8e2b2ed967488b4d9dba4f982847874cc32ca21f3e98bf28b618c970735c5939\n        /* \"simple-token/appointment.sol\":1228:1244  appointmentCount */\n      sload(0x03)\n        /* \"simple-token/appointment.sol\":1246:1256  msg.sender */\n      caller\n        /* \"simple-token/appointment.sol\":1258:1268  _startTime */\n      dup4\n        /* \"simple-token/appointment.sol\":1270:1279  msg.value */\n      callvalue\n        /* \"simple-token/appointment.sol\":1210:1280  AppointmentBooked(appointmentCount, msg.sender, _startTime, msg.value) */\n      mload(0x40)\n      tag_75\n      swap5\n      swap4\n      swap3\n      swap2\n      swap1\n      tag_76\n      jump\t// in\n    tag_75:\n      mload(0x40)\n      dup1\n      swap2\n      sub\n      swap1\n      log1\n        /* \"simple-token/appointment.sol\":827:1287  function bookAppointment(uint256 _startTime) public payable {... */\n      pop\n      jump\t// out\n        /* \"simple-token/appointment.sol\":349:380  uint256 public appointmentCount */\n    tag_40:\n      sload(0x03)\n      dup2\n      jump\t// out\n        /* \"#utility.yul\":88:205   */\n    tag_78:\n        /* \"#utility.yul\":197:198   */\n      0x00\n        /* \"#utility.yul\":194:195   */\n      dup1\n        /* \"#utility.yul\":187:199   */\n      revert\n        /* \"#utility.yul\":334:411   */\n    tag_80:\n        /* \"#utility.yul\":371:378   */\n      0x00\n        /* \"#utility.yul\":400:405   */\n      dup2\n        /* \"#utility.yul\":389:405   */\n      swap1\n      pop\n        /* \"#utility.yul\":334:411   */\n      swap2\n      swap1\n      pop\n      jump\t// out\n        /* \"#utility.yul\":417:539   */\n    tag_81:\n        /* \"#utility.yul\":490:514   */\n      tag_114\n        /* \"#utility.yul\":508:513   */\n      dup2\n        /* \"#utility.yul\":490:514   */\n      tag_80\n      jump\t// in\n    tag_114:\n        /* \"#utility.yul\":483:488   */\n      dup2\n        /* \"#utility.yul\":480:515   */\n      eq\n        /* \"#utility.yul\":470:533   */\n      tag_115\n      jumpi\n        /* \"#utility.yul\":529:530   */\n      0x00\n        /* \"#utility.yul\":526:527   */\n      dup1\n        /* \"#utility.yul\":519:531   */\n      revert\n        /* \"#utility.yul\":470:533   */\n    tag_115:\n        /* \"#utility.yul\":417:539   */\n      pop\n      jump\t// out\n        /* \"#utility.yul\":545:684   */\n    tag_82:\n        /* \"#utility.yul\":591:596   */\n      0x00\n        /* \"#utility.yul\":629:635   */\n      dup2\n        /* \"#utility.yul\":616:636   */\n      calldataload\n        /* \"#utility.yul\":607:636   */\n      swap1\n      pop\n        /* \"#utility.yul\":645:678   */\n      tag_117\n        /* \"#utility.yul\":672:677   */\n      dup2\n        /* \"#utility.yul\":645:678   */\n      tag_81\n      jump\t// in\n    tag_117:\n        /* \"#utility.yul\":545:684   */\n      swap3\n      swap2\n      pop\n      pop\n      jump\t// out\n        /* \"#utility.yul\":690:1019   */\n    tag_13:\n        /* \"#utility.yul\":749:755   */\n      0x00\n        /* \"#utility.yul\":798:800   */\n      0x20\n        /* \"#utility.yul\":786:795   */\n      dup3\n        /* \"#utility.yul\":777:784   */\n      dup5\n        /* \"#utility.yul\":773:796   */\n      sub\n        /* \"#utility.yul\":769:801   */\n      slt\n        /* \"#utility.yul\":766:885   */\n      iszero\n      tag_119\n      jumpi\n        /* \"#utility.yul\":804:883   */\n      tag_120\n      tag_78\n      jump\t// in\n    tag_120:\n        /* \"#utility.yul\":766:885   */\n    tag_119:\n        /* \"#utility.yul\":924:925   */\n      0x00\n        /* \"#utility.yul\":949:1002   */\n      tag_121\n        /* \"#utility.yul\":994:1001   */\n      dup5\n        /* \"#utility.yul\":985:991   */\n      dup3\n        /* \"#utility.yul\":974:983   */\n      dup6\n        /* \"#utility.yul\":970:992   */\n      add\n        /* \"#utility.yul\":949:1002   */\n      tag_82\n      jump\t// in\n    tag_121:\n        /* \"#utility.yul\":939:1002   */\n      swap2\n      pop\n        /* \"#utility.yul\":895:1012   */\n      pop\n        /* \"#utility.yul\":690:1019   */\n      swap3\n      swap2\n      pop\n      pop\n      jump\t// out\n        /* \"#utility.yul\":1025:1151   */\n    tag_83:\n        /* \"#utility.yul\":1062:1069   */\n      0x00\n        /* \"#utility.yul\":1102:1144   */\n      0xffffffffffffffffffffffffffffffffffffffff\n        /* \"#utility.yul\":1095:1100   */\n      dup3\n        /* \"#utility.yul\":1091:1145   */\n      and\n        /* \"#utility.yul\":1080:1145   */\n      swap1\n      pop\n        /* \"#utility.yul\":1025:1151   */\n      swap2\n      swap1\n      pop\n      jump\t// out\n        /* \"#utility.yul\":1157:1261   */\n    tag_84:\n        /* \"#utility.yul\":1202:1209   */\n      0x00\n        /* \"#utility.yul\":1231:1255   */\n      tag_124\n        /* \"#utility.yul\":1249:1254   */\n      dup3\n        /* \"#utility.yul\":1231:1255   */\n      tag_83\n      jump\t// in\n    tag_124:\n        /* \"#utility.yul\":1220:1255   */\n      swap1\n      pop\n        /* \"#utility.yul\":1157:1261   */\n      swap2\n      swap1\n      pop\n      jump\t// out\n        /* \"#utility.yul\":1267:1409   */\n    tag_85:\n        /* \"#utility.yul\":1370:1402   */\n      tag_126\n        /* \"#utility.yul\":1396:1401   */\n      dup2\n        /* \"#utility.yul\":1370:1402   */\n      tag_84\n      jump\t// in\n    tag_126:\n        /* \"#utility.yul\":1365:1368   */\n      dup3\n        /* \"#utility.yul\":1358:1403   */\n      mstore\n        /* \"#utility.yul\":1267:1409   */\n      pop\n      pop\n      jump\t// out\n        /* \"#utility.yul\":1415:1533   */\n    tag_86:\n        /* \"#utility.yul\":1502:1526   */\n      tag_128\n        /* \"#utility.yul\":1520:1525   */\n      dup2\n        /* \"#utility.yul\":1502:1526   */\n      tag_80\n      jump\t// in\n    tag_128:\n        /* \"#utility.yul\":1497:1500   */\n      dup3\n        /* \"#utility.yul\":1490:1527   */\n      mstore\n        /* \"#utility.yul\":1415:1533   */\n      pop\n      pop\n      jump\t// out\n        /* \"#utility.yul\":1539:1629   */\n    tag_87:\n        /* \"#utility.yul\":1573:1580   */\n      0x00\n        /* \"#utility.yul\":1616:1621   */\n      dup2\n        /* \"#utility.yul\":1609:1622   */\n      iszero\n        /* \"#utility.yul\":1602:1623   */\n      iszero\n        /* \"#utility.yul\":1591:1623   */\n      swap1\n      pop\n        /* \"#utility.yul\":1539:1629   */\n      swap2\n      swap1\n      pop\n      jump\t// out\n        /* \"#utility.yul\":1635:1744   */\n    tag_88:\n        /* \"#utility.yul\":1716:1737   */\n      tag_131\n        /* \"#utility.yul\":1731:1736   */\n      dup2\n        /* \"#utility.yul\":1716:1737   */\n      tag_87\n      jump\t// in\n    tag_131:\n        /* \"#utility.yul\":1711:1714   */\n      dup3\n        /* \"#utility.yul\":1704:1738   */\n      mstore\n        /* \"#utility.yul\":1635:1744   */\n      pop\n      pop\n      jump\t// out\n        /* \"#utility.yul\":1750:2323   */\n    tag_16:\n        /* \"#utility.yul\":1937:1941   */\n      0x00\n        /* \"#utility.yul\":1975:1978   */\n      0x80\n        /* \"#utility.yul\":1964:1973   */\n      dup3\n        /* \"#utility.yul\":1960:1979   */\n      add\n        /* \"#utility.yul\":1952:1979   */\n      swap1\n      pop\n        /* \"#utility.yul\":1989:2076   */\n      tag_133\n        /* \"#utility.yul\":2073:2074   */\n      0x00\n        /* \"#utility.yul\":2062:2071   */\n      dup4\n        /* \"#utility.yul\":2058:2075   */\n      add\n        /* \"#utility.yul\":2049:2055   */\n      dup8\n        /* \"#utility.yul\":1989:2076   */\n      tag_85\n      jump\t// in\n    tag_133:\n        /* \"#utility.yul\":2086:2158   */\n      tag_134\n        /* \"#utility.yul\":2154:2156   */\n      0x20\n        /* \"#utility.yul\":2143:2152   */\n      dup4\n        /* \"#utility.yul\":2139:2157   */\n      add\n        /* \"#utility.yul\":2130:2136   */\n      dup7\n        /* \"#utility.yul\":2086:2158   */\n      tag_86\n      jump\t// in\n    tag_134:\n        /* \"#utility.yul\":2168:2240   */\n      tag_135\n        /* \"#utility.yul\":2236:2238   */\n      0x40\n        /* \"#utility.yul\":2225:2234   */\n      dup4\n        /* \"#utility.yul\":2221:2239   */\n      add\n        /* \"#utility.yul\":2212:2218   */\n      dup6\n        /* \"#utility.yul\":2168:2240   */\n      tag_86\n      jump\t// in\n    tag_135:\n        /* \"#utility.yul\":2250:2316   */\n      tag_136\n        /* \"#utility.yul\":2312:2314   */\n      0x60\n        /* \"#utility.yul\":2301:2310   */\n      dup4\n        /* \"#utility.yul\":2297:2315   */\n      add\n        /* \"#utility.yul\":2288:2294   */\n      dup5\n        /* \"#utility.yul\":2250:2316   */\n      tag_88\n      jump\t// in\n    tag_136:\n        /* \"#utility.yul\":1750:2323   */\n      swap6\n      swap5\n      pop\n      pop\n      pop\n      pop\n      pop\n      jump\t// out\n        /* \"#utility.yul\":2329:2551   */\n    tag_21:\n        /* \"#utility.yul\":2422:2426   */\n      0x00\n        /* \"#utility.yul\":2460:2462   */\n      0x20\n        /* \"#utility.yul\":2449:2458   */\n      dup3\n        /* \"#utility.yul\":2445:2463   */\n      add\n        /* \"#utility.yul\":2437:2463   */\n      swap1\n      pop\n        /* \"#utility.yul\":2473:2544   */\n      tag_138\n        /* \"#utility.yul\":2541:2542   */\n      0x00\n        /* \"#utility.yul\":2530:2539   */\n      dup4\n        /* \"#utility.yul\":2526:2543   */\n      add\n        /* \"#utility.yul\":2517:2523   */\n      dup5\n        /* \"#utility.yul\":2473:2544   */\n      tag_86\n      jump\t// in\n    tag_138:\n        /* \"#utility.yul\":2329:2551   */\n      swap3\n      swap2\n      pop\n      pop\n      jump\t// out\n        /* \"#utility.yul\":2557:2811   */\n    tag_30:\n        /* \"#utility.yul\":2666:2670   */\n      0x00\n        /* \"#utility.yul\":2704:2706   */\n      0x20\n        /* \"#utility.yul\":2693:2702   */\n      dup3\n        /* \"#utility.yul\":2689:2707   */\n      add\n        /* \"#utility.yul\":2681:2707   */\n      swap1\n      pop\n        /* \"#utility.yul\":2717:2804   */\n      tag_140\n        /* \"#utility.yul\":2801:2802   */\n      0x00\n        /* \"#utility.yul\":2790:2799   */\n      dup4\n        /* \"#utility.yul\":2786:2803   */\n      add\n        /* \"#utility.yul\":2777:2783   */\n      dup5\n        /* \"#utility.yul\":2717:2804   */\n      tag_85\n      jump\t// in\n    tag_140:\n        /* \"#utility.yul\":2557:2811   */\n      swap3\n      swap2\n      pop\n      pop\n      jump\t// out\n        /* \"#utility.yul\":2817:2997   */\n    tag_89:\n        /* \"#utility.yul\":2865:2942   */\n      0x4e487b7100000000000000000000000000000000000000000000000000000000\n        /* \"#utility.yul\":2862:2863   */\n      0x00\n        /* \"#utility.yul\":2855:2943   */\n      mstore\n        /* \"#utility.yul\":2962:2966   */\n      0x11\n        /* \"#utility.yul\":2959:2960   */\n      0x04\n        /* \"#utility.yul\":2952:2967   */\n      mstore\n        /* \"#utility.yul\":2986:2990   */\n      0x24\n        /* \"#utility.yul\":2983:2984   */\n      0x00\n        /* \"#utility.yul\":2976:2991   */\n      revert\n        /* \"#utility.yul\":3003:3194   */\n    tag_44:\n        /* \"#utility.yul\":3043:3046   */\n      0x00\n        /* \"#utility.yul\":3062:3082   */\n      tag_143\n        /* \"#utility.yul\":3080:3081   */\n      dup3\n        /* \"#utility.yul\":3062:3082   */\n      tag_80\n      jump\t// in\n    tag_143:\n        /* \"#utility.yul\":3057:3082   */\n      swap2\n      pop\n        /* \"#utility.yul\":3096:3116   */\n      tag_144\n        /* \"#utility.yul\":3114:3115   */\n      dup4\n        /* \"#utility.yul\":3096:3116   */\n      tag_80\n      jump\t// in\n    tag_144:\n        /* \"#utility.yul\":3091:3116   */\n      swap3\n      pop\n        /* \"#utility.yul\":3139:3140   */\n      dup3\n        /* \"#utility.yul\":3136:3137   */\n      dup3\n        /* \"#utility.yul\":3132:3141   */\n      add\n        /* \"#utility.yul\":3125:3141   */\n      swap1\n      pop\n        /* \"#utility.yul\":3160:3163   */\n      dup1\n        /* \"#utility.yul\":3157:3158   */\n      dup3\n        /* \"#utility.yul\":3154:3164   */\n      gt\n        /* \"#utility.yul\":3151:3187   */\n      iszero\n      tag_145\n      jumpi\n        /* \"#utility.yul\":3167:3185   */\n      tag_146\n      tag_89\n      jump\t// in\n    tag_146:\n        /* \"#utility.yul\":3151:3187   */\n    tag_145:\n        /* \"#utility.yul\":3003:3194   */\n      swap3\n      swap2\n      pop\n      pop\n      jump\t// out\n        /* \"#utility.yul\":3200:3369   */\n    tag_90:\n        /* \"#utility.yul\":3284:3295   */\n      0x00\n        /* \"#utility.yul\":3318:3324   */\n      dup3\n        /* \"#utility.yul\":3313:3316   */\n      dup3\n        /* \"#utility.yul\":3306:3325   */\n      mstore\n        /* \"#utility.yul\":3358:3362   */\n      0x20\n        /* \"#utility.yul\":3353:3356   */\n      dup3\n        /* \"#utility.yul\":3349:3363   */\n      add\n        /* \"#utility.yul\":3334:3363   */\n      swap1\n      pop\n        /* \"#utility.yul\":3200:3369   */\n      swap3\n      swap2\n      pop\n      pop\n      jump\t// out\n        /* \"#utility.yul\":3375:3552   */\n    tag_91:\n        /* \"#utility.yul\":3515:3544   */\n      0x4170706f696e746d656e742074696d65206e6f74207061737365640000000000\n        /* \"#utility.yul\":3511:3512   */\n      0x00\n        /* \"#utility.yul\":3503:3509   */\n      dup3\n        /* \"#utility.yul\":3499:3513   */\n      add\n        /* \"#utility.yul\":3492:3545   */\n      mstore\n        /* \"#utility.yul\":3375:3552   */\n      pop\n      jump\t// out\n        /* \"#utility.yul\":3558:3924   */\n    tag_92:\n        /* \"#utility.yul\":3700:3703   */\n      0x00\n        /* \"#utility.yul\":3721:3788   */\n      tag_150\n        /* \"#utility.yul\":3785:3787   */\n      0x1b\n        /* \"#utility.yul\":3780:3783   */\n      dup4\n        /* \"#utility.yul\":3721:3788   */\n      tag_90\n      jump\t// in\n    tag_150:\n        /* \"#utility.yul\":3714:3788   */\n      swap2\n      pop\n        /* \"#utility.yul\":3797:3890   */\n      tag_151\n        /* \"#utility.yul\":3886:3889   */\n      dup3\n        /* \"#utility.yul\":3797:3890   */\n      tag_91\n      jump\t// in\n    tag_151:\n        /* \"#utility.yul\":3915:3917   */\n      0x20\n        /* \"#utility.yul\":3910:3913   */\n      dup3\n        /* \"#utility.yul\":3906:3918   */\n      add\n        /* \"#utility.yul\":3899:3918   */\n      swap1\n      pop\n        /* \"#utility.yul\":3558:3924   */\n      swap2\n      swap1\n      pop\n      jump\t// out\n        /* \"#utility.yul\":3930:4349   */\n    tag_47:\n        /* \"#utility.yul\":4096:4100   */\n      0x00\n        /* \"#utility.yul\":4134:4136   */\n      0x20\n        /* \"#utility.yul\":4123:4132   */\n      dup3\n        /* \"#utility.yul\":4119:4137   */\n      add\n        /* \"#utility.yul\":4111:4137   */\n      swap1\n      pop\n        /* \"#utility.yul\":4183:4192   */\n      dup2\n        /* \"#utility.yul\":4177:4181   */\n      dup2\n        /* \"#utility.yul\":4173:4193   */\n      sub\n        /* \"#utility.yul\":4169:4170   */\n      0x00\n        /* \"#utility.yul\":4158:4167   */\n      dup4\n        /* \"#utility.yul\":4154:4171   */\n      add\n        /* \"#utility.yul\":4147:4194   */\n      mstore\n        /* \"#utility.yul\":4211:4342   */\n      tag_153\n        /* \"#utility.yul\":4337:4341   */\n      dup2\n        /* \"#utility.yul\":4211:4342   */\n      tag_92\n      jump\t// in\n    tag_153:\n        /* \"#utility.yul\":4203:4342   */\n      swap1\n      pop\n        /* \"#utility.yul\":3930:4349   */\n      swap2\n      swap1\n      pop\n      jump\t// out\n        /* \"#utility.yul\":4355:4517   */\n    tag_93:\n        /* \"#utility.yul\":4495:4509   */\n      0x556e617574686f72697a65640000000000000000000000000000000000000000\n        /* \"#utility.yul\":4491:4492   */\n      0x00\n        /* \"#utility.yul\":4483:4489   */\n      dup3\n        /* \"#utility.yul\":4479:4493   */\n      add\n        /* \"#utility.yul\":4472:4510   */\n      mstore\n        /* \"#utility.yul\":4355:4517   */\n      pop\n      jump\t// out\n        /* \"#utility.yul\":4523:4889   */\n    tag_94:\n        /* \"#utility.yul\":4665:4668   */\n      0x00\n        /* \"#utility.yul\":4686:4753   */\n      tag_156\n        /* \"#utility.yul\":4750:4752   */\n      0x0c\n        /* \"#utility.yul\":4745:4748   */\n      dup4\n        /* \"#utility.yul\":4686:4753   */\n      tag_90\n      jump\t// in\n    tag_156:\n        /* \"#utility.yul\":4679:4753   */\n      swap2\n      pop\n        /* \"#utility.yul\":4762:4855   */\n      tag_157\n        /* \"#utility.yul\":4851:4854   */\n      dup3\n        /* \"#utility.yul\":4762:4855   */\n      tag_93\n      jump\t// in\n    tag_157:\n        /* \"#utility.yul\":4880:4882   */\n      0x20\n        /* \"#utility.yul\":4875:4878   */\n      dup3\n        /* \"#utility.yul\":4871:4883   */\n      add\n        /* \"#utility.yul\":4864:4883   */\n      swap1\n      pop\n        /* \"#utility.yul\":4523:4889   */\n      swap2\n      swap1\n      pop\n      jump\t// out\n        /* \"#utility.yul\":4895:5314   */\n    tag_51:\n        /* \"#utility.yul\":5061:5065   */\n      0x00\n        /* \"#utility.yul\":5099:5101   */\n      0x20\n        /* \"#utility.yul\":5088:5097   */\n      dup3\n        /* \"#utility.yul\":5084:5102   */\n      add\n        /* \"#utility.yul\":5076:5102   */\n      swap1\n      pop\n        /* \"#utility.yul\":5148:5157   */\n      dup2\n        /* \"#utility.yul\":5142:5146   */\n      dup2\n        /* \"#utility.yul\":5138:5158   */\n      sub\n        /* \"#utility.yul\":5134:5135   */\n      0x00\n        /* \"#utility.yul\":5123:5132   */\n      dup4\n        /* \"#utility.yul\":5119:5136   */\n      add\n        /* \"#utility.yul\":5112:5159   */\n      mstore\n        /* \"#utility.yul\":5176:5307   */\n      tag_159\n        /* \"#utility.yul\":5302:5306   */\n      dup2\n        /* \"#utility.yul\":5176:5307   */\n      tag_94\n      jump\t// in\n    tag_159:\n        /* \"#utility.yul\":5168:5307   */\n      swap1\n      pop\n        /* \"#utility.yul\":4895:5314   */\n      swap2\n      swap1\n      pop\n      jump\t// out\n        /* \"#utility.yul\":5320:5380   */\n    tag_95:\n        /* \"#utility.yul\":5348:5351   */\n      0x00\n        /* \"#utility.yul\":5369:5374   */\n      dup2\n        /* \"#utility.yul\":5362:5374   */\n      swap1\n      pop\n        /* \"#utility.yul\":5320:5380   */\n      swap2\n      swap1\n      pop\n      jump\t// out\n        /* \"#utility.yul\":5386:5528   */\n    tag_96:\n        /* \"#utility.yul\":5436:5445   */\n      0x00\n        /* \"#utility.yul\":5469:5522   */\n      tag_162\n        /* \"#utility.yul\":5487:5521   */\n      tag_163\n        /* \"#utility.yul\":5496:5520   */\n      tag_164\n        /* \"#utility.yul\":5514:5519   */\n      dup5\n        /* \"#utility.yul\":5496:5520   */\n      tag_83\n      jump\t// in\n    tag_164:\n        /* \"#utility.yul\":5487:5521   */\n      tag_95\n      jump\t// in\n    tag_163:\n        /* \"#utility.yul\":5469:5522   */\n      tag_83\n      jump\t// in\n    tag_162:\n        /* \"#utility.yul\":5456:5522   */\n      swap1\n      pop\n        /* \"#utility.yul\":5386:5528   */\n      swap2\n      swap1\n      pop\n      jump\t// out\n        /* \"#utility.yul\":5534:5660   */\n    tag_97:\n        /* \"#utility.yul\":5584:5593   */\n      0x00\n        /* \"#utility.yul\":5617:5654   */\n      tag_166\n        /* \"#utility.yul\":5648:5653   */\n      dup3\n        /* \"#utility.yul\":5617:5654   */\n      tag_96\n      jump\t// in\n    tag_166:\n        /* \"#utility.yul\":5604:5654   */\n      swap1\n      pop\n        /* \"#utility.yul\":5534:5660   */\n      swap2\n      swap1\n      pop\n      jump\t// out\n        /* \"#utility.yul\":5666:5800   */\n    tag_98:\n        /* \"#utility.yul\":5724:5733   */\n      0x00\n        /* \"#utility.yul\":5757:5794   */\n      tag_168\n        /* \"#utility.yul\":5788:5793   */\n      dup3\n        /* \"#utility.yul\":5757:5794   */\n      tag_97\n      jump\t// in\n    tag_168:\n        /* \"#utility.yul\":5744:5794   */\n      swap1\n      pop\n        /* \"#utility.yul\":5666:5800   */\n      swap2\n      swap1\n      pop\n      jump\t// out\n        /* \"#utility.yul\":5806:5953   */\n    tag_99:\n        /* \"#utility.yul\":5901:5946   */\n      tag_170\n        /* \"#utility.yul\":5940:5945   */\n      dup2\n        /* \"#utility.yul\":5901:5946   */\n      tag_98\n      jump\t// in\n    tag_170:\n        /* \"#utility.yul\":5896:5899   */\n      dup3\n        /* \"#utility.yul\":5889:5947   */\n      mstore\n        /* \"#utility.yul\":5806:5953   */\n      pop\n      pop\n      jump\t// out\n        /* \"#utility.yul\":5959:6417   */\n    tag_56:\n        /* \"#utility.yul\":6116:6120   */\n      0x00\n        /* \"#utility.yul\":6154:6156   */\n      0x60\n        /* \"#utility.yul\":6143:6152   */\n      dup3\n        /* \"#utility.yul\":6139:6157   */\n      add\n        /* \"#utility.yul\":6131:6157   */\n      swap1\n      pop\n        /* \"#utility.yul\":6167:6238   */\n      tag_172\n        /* \"#utility.yul\":6235:6236   */\n      0x00\n        /* \"#utility.yul\":6224:6233   */\n      dup4\n        /* \"#utility.yul\":6220:6237   */\n      add\n        /* \"#utility.yul\":6211:6217   */\n      dup7\n        /* \"#utility.yul\":6167:6238   */\n      tag_86\n      jump\t// in\n    tag_172:\n        /* \"#utility.yul\":6248:6328   */\n      tag_173\n        /* \"#utility.yul\":6324:6326   */\n      0x20\n        /* \"#utility.yul\":6313:6322   */\n      dup4\n        /* \"#utility.yul\":6309:6327   */\n      add\n        /* \"#utility.yul\":6300:6306   */\n      dup6\n        /* \"#utility.yul\":6248:6328   */\n      tag_99\n      jump\t// in\n    tag_173:\n        /* \"#utility.yul\":6338:6410   */\n      tag_174\n        /* \"#utility.yul\":6406:6408   */\n      0x40\n        /* \"#utility.yul\":6395:6404   */\n      dup4\n        /* \"#utility.yul\":6391:6409   */\n      add\n        /* \"#utility.yul\":6382:6388   */\n      dup5\n        /* \"#utility.yul\":6338:6410   */\n      tag_86\n      jump\t// in\n    tag_174:\n        /* \"#utility.yul\":5959:6417   */\n      swap5\n      swap4\n      pop\n      pop\n      pop\n      pop\n      jump\t// out\n        /* \"#utility.yul\":6423:6644   */\n    tag_100:\n        /* \"#utility.yul\":6563:6597   */\n      0x4f6e6c7920746865206f776e65722063616e206d61726b20617474656e64616e\n        /* \"#utility.yul\":6559:6560   */\n      0x00\n        /* \"#utility.yul\":6551:6557   */\n      dup3\n        /* \"#utility.yul\":6547:6561   */\n      add\n        /* \"#utility.yul\":6540:6598   */\n      mstore\n        /* \"#utility.yul\":6632:6636   */\n      0x6365000000000000000000000000000000000000000000000000000000000000\n        /* \"#utility.yul\":6627:6629   */\n      0x20\n        /* \"#utility.yul\":6619:6625   */\n      dup3\n        /* \"#utility.yul\":6615:6630   */\n      add\n        /* \"#utility.yul\":6608:6637   */\n      mstore\n        /* \"#utility.yul\":6423:6644   */\n      pop\n      jump\t// out\n        /* \"#utility.yul\":6650:7016   */\n    tag_101:\n        /* \"#utility.yul\":6792:6795   */\n      0x00\n        /* \"#utility.yul\":6813:6880   */\n      tag_177\n        /* \"#utility.yul\":6877:6879   */\n      0x22\n        /* \"#utility.yul\":6872:6875   */\n      dup4\n        /* \"#utility.yul\":6813:6880   */\n      tag_90\n      jump\t// in\n    tag_177:\n        /* \"#utility.yul\":6806:6880   */\n      swap2\n      pop\n        /* \"#utility.yul\":6889:6982   */\n      tag_178\n        /* \"#utility.yul\":6978:6981   */\n      dup3\n        /* \"#utility.yul\":6889:6982   */\n      tag_100\n      jump\t// in\n    tag_178:\n        /* \"#utility.yul\":7007:7009   */\n      0x40\n        /* \"#utility.yul\":7002:7005   */\n      dup3\n        /* \"#utility.yul\":6998:7010   */\n      add\n        /* \"#utility.yul\":6991:7010   */\n      swap1\n      pop\n        /* \"#utility.yul\":6650:7016   */\n      swap2\n      swap1\n      pop\n      jump\t// out\n        /* \"#utility.yul\":7022:7441   */\n    tag_63:\n        /* \"#utility.yul\":7188:7192   */\n      0x00\n        /* \"#utility.yul\":7226:7228   */\n      0x20\n        /* \"#utility.yul\":7215:7224   */\n      dup3\n        /* \"#utility.yul\":7211:7229   */\n      add\n        /* \"#utility.yul\":7203:7229   */\n      swap1\n      pop\n        /* \"#utility.yul\":7275:7284   */\n      dup2\n        /* \"#utility.yul\":7269:7273   */\n      dup2\n        /* \"#utility.yul\":7265:7285   */\n      sub\n        /* \"#utility.yul\":7261:7262   */\n      0x00\n        /* \"#utility.yul\":7250:7259   */\n      dup4\n        /* \"#utility.yul\":7246:7263   */\n      add\n        /* \"#utility.yul\":7239:7286   */\n      mstore\n        /* \"#utility.yul\":7303:7434   */\n      tag_180\n        /* \"#utility.yul\":7429:7433   */\n      dup2\n        /* \"#utility.yul\":7303:7434   */\n      tag_101\n      jump\t// in\n    tag_180:\n        /* \"#utility.yul\":7295:7434   */\n      swap1\n      pop\n        /* \"#utility.yul\":7022:7441   */\n      swap2\n      swap1\n      pop\n      jump\t// out\n        /* \"#utility.yul\":7447:7667   */\n    tag_102:\n        /* \"#utility.yul\":7587:7621   */\n      0x4170706f696e746d656e742074696d6520686173206e6f742079657420636f6d\n        /* \"#utility.yul\":7583:7584   */\n      0x00\n        /* \"#utility.yul\":7575:7581   */\n      dup3\n        /* \"#utility.yul\":7571:7585   */\n      add\n        /* \"#utility.yul\":7564:7622   */\n      mstore\n        /* \"#utility.yul\":7656:7659   */\n      0x6500000000000000000000000000000000000000000000000000000000000000\n        /* \"#utility.yul\":7651:7653   */\n      0x20\n        /* \"#utility.yul\":7643:7649   */\n      dup3\n        /* \"#utility.yul\":7639:7654   */\n      add\n        /* \"#utility.yul\":7632:7660   */\n      mstore\n        /* \"#utility.yul\":7447:7667   */\n      pop\n      jump\t// out\n        /* \"#utility.yul\":7673:8039   */\n    tag_103:\n        /* \"#utility.yul\":7815:7818   */\n      0x00\n        /* \"#utility.yul\":7836:7903   */\n      tag_183\n        /* \"#utility.yul\":7900:7902   */\n      0x21\n        /* \"#utility.yul\":7895:7898   */\n      dup4\n        /* \"#utility.yul\":7836:7903   */\n      tag_90\n      jump\t// in\n    tag_183:\n        /* \"#utility.yul\":7829:7903   */\n      swap2\n      pop\n        /* \"#utility.yul\":7912:8005   */\n      tag_184\n        /* \"#utility.yul\":8001:8004   */\n      dup3\n        /* \"#utility.yul\":7912:8005   */\n      tag_102\n      jump\t// in\n    tag_184:\n        /* \"#utility.yul\":8030:8032   */\n      0x40\n        /* \"#utility.yul\":8025:8028   */\n      dup3\n        /* \"#utility.yul\":8021:8033   */\n      add\n        /* \"#utility.yul\":8014:8033   */\n      swap1\n      pop\n        /* \"#utility.yul\":7673:8039   */\n      swap2\n      swap1\n      pop\n      jump\t// out\n        /* \"#utility.yul\":8045:8464   */\n    tag_66:\n        /* \"#utility.yul\":8211:8215   */\n      0x00\n        /* \"#utility.yul\":8249:8251   */\n      0x20\n        /* \"#utility.yul\":8238:8247   */\n      dup3\n        /* \"#utility.yul\":8234:8252   */\n      add\n        /* \"#utility.yul\":8226:8252   */\n      swap1\n      pop\n        /* \"#utility.yul\":8298:8307   */\n      dup2\n        /* \"#utility.yul\":8292:8296   */\n      dup2\n        /* \"#utility.yul\":8288:8308   */\n      sub\n        /* \"#utility.yul\":8284:8285   */\n      0x00\n        /* \"#utility.yul\":8273:8282   */\n      dup4\n        /* \"#utility.yul\":8269:8286   */\n      add\n        /* \"#utility.yul\":8262:8309   */\n      mstore\n        /* \"#utility.yul\":8326:8457   */\n      tag_186\n        /* \"#utility.yul\":8452:8456   */\n      dup2\n        /* \"#utility.yul\":8326:8457   */\n      tag_103\n      jump\t// in\n    tag_186:\n        /* \"#utility.yul\":8318:8457   */\n      swap1\n      pop\n        /* \"#utility.yul\":8045:8464   */\n      swap2\n      swap1\n      pop\n      jump\t// out\n        /* \"#utility.yul\":8470:8818   */\n    tag_68:\n        /* \"#utility.yul\":8599:8603   */\n      0x00\n        /* \"#utility.yul\":8637:8639   */\n      0x40\n        /* \"#utility.yul\":8626:8635   */\n      dup3\n        /* \"#utility.yul\":8622:8640   */\n      add\n        /* \"#utility.yul\":8614:8640   */\n      swap1\n      pop\n        /* \"#utility.yul\":8650:8721   */\n      tag_188\n        /* \"#utility.yul\":8718:8719   */\n      0x00\n        /* \"#utility.yul\":8707:8716   */\n      dup4\n        /* \"#utility.yul\":8703:8720   */\n      add\n        /* \"#utility.yul\":8694:8700   */\n      dup6\n        /* \"#utility.yul\":8650:8721   */\n      tag_86\n      jump\t// in\n    tag_188:\n        /* \"#utility.yul\":8731:8811   */\n      tag_189\n        /* \"#utility.yul\":8807:8809   */\n      0x20\n        /* \"#utility.yul\":8796:8805   */\n      dup4\n        /* \"#utility.yul\":8792:8810   */\n      add\n        /* \"#utility.yul\":8783:8789   */\n      dup5\n        /* \"#utility.yul\":8731:8811   */\n      tag_99\n      jump\t// in\n    tag_189:\n        /* \"#utility.yul\":8470:8818   */\n      swap4\n      swap3\n      pop\n      pop\n      pop\n      jump\t// out\n        /* \"#utility.yul\":8824:9000   */\n    tag_104:\n        /* \"#utility.yul\":8964:8992   */\n      0x4465706f73697420616d6f756e74206e6f7420636f7272656374000000000000\n        /* \"#utility.yul\":8960:8961   */\n      0x00\n        /* \"#utility.yul\":8952:8958   */\n      dup3\n        /* \"#utility.yul\":8948:8962   */\n      add\n        /* \"#utility.yul\":8941:8993   */\n      mstore\n        /* \"#utility.yul\":8824:9000   */\n      pop\n      jump\t// out\n        /* \"#utility.yul\":9006:9372   */\n    tag_105:\n        /* \"#utility.yul\":9148:9151   */\n      0x00\n        /* \"#utility.yul\":9169:9236   */\n      tag_192\n        /* \"#utility.yul\":9233:9235   */\n      0x1a\n        /* \"#utility.yul\":9228:9231   */\n      dup4\n        /* \"#utility.yul\":9169:9236   */\n      tag_90\n      jump\t// in\n    tag_192:\n        /* \"#utility.yul\":9162:9236   */\n      swap2\n      pop\n        /* \"#utility.yul\":9245:9338   */\n      tag_193\n        /* \"#utility.yul\":9334:9337   */\n      dup3\n        /* \"#utility.yul\":9245:9338   */\n      tag_104\n      jump\t// in\n    tag_193:\n        /* \"#utility.yul\":9363:9365   */\n      0x20\n        /* \"#utility.yul\":9358:9361   */\n      dup3\n        /* \"#utility.yul\":9354:9366   */\n      add\n        /* \"#utility.yul\":9347:9366   */\n      swap1\n      pop\n        /* \"#utility.yul\":9006:9372   */\n      swap2\n      swap1\n      pop\n      jump\t// out\n        /* \"#utility.yul\":9378:9797   */\n    tag_72:\n        /* \"#utility.yul\":9544:9548   */\n      0x00\n        /* \"#utility.yul\":9582:9584   */\n      0x20\n        /* \"#utility.yul\":9571:9580   */\n      dup3\n        /* \"#utility.yul\":9567:9585   */\n      add\n        /* \"#utility.yul\":9559:9585   */\n      swap1\n      pop\n        /* \"#utility.yul\":9631:9640   */\n      dup2\n        /* \"#utility.yul\":9625:9629   */\n      dup2\n        /* \"#utility.yul\":9621:9641   */\n      sub\n        /* \"#utility.yul\":9617:9618   */\n      0x00\n        /* \"#utility.yul\":9606:9615   */\n      dup4\n        /* \"#utility.yul\":9602:9619   */\n      add\n        /* \"#utility.yul\":9595:9642   */\n      mstore\n        /* \"#utility.yul\":9659:9790   */\n      tag_195\n        /* \"#utility.yul\":9785:9789   */\n      dup2\n        /* \"#utility.yul\":9659:9790   */\n      tag_105\n      jump\t// in\n    tag_195:\n        /* \"#utility.yul\":9651:9790   */\n      swap1\n      pop\n        /* \"#utility.yul\":9378:9797   */\n      swap2\n      swap1\n      pop\n      jump\t// out\n        /* \"#utility.yul\":9803:10036   */\n    tag_74:\n        /* \"#utility.yul\":9842:9845   */\n      0x00\n        /* \"#utility.yul\":9865:9889   */\n      tag_197\n        /* \"#utility.yul\":9883:9888   */\n      dup3\n        /* \"#utility.yul\":9865:9889   */\n      tag_80\n      jump\t// in\n    tag_197:\n        /* \"#utility.yul\":9856:9889   */\n      swap2\n      pop\n        /* \"#utility.yul\":9911:9977   */\n      0xffffffffffffffffffffffffffffffffffffffffffffffffffffffffffffffff\n        /* \"#utility.yul\":9904:9909   */\n      dup3\n        /* \"#utility.yul\":9901:9978   */\n      sub\n        /* \"#utility.yul\":9898:10001   */\n      tag_198\n      jumpi\n        /* \"#utility.yul\":9981:9999   */\n      tag_199\n      tag_89\n      jump\t// in\n    tag_199:\n        /* \"#utility.yul\":9898:10001   */\n    tag_198:\n        /* \"#utility.yul\":10028:10029   */\n      0x01\n        /* \"#utility.yul\":10021:10026   */\n      dup3\n        /* \"#utility.yul\":10017:10030   */\n      add\n        /* \"#utility.yul\":10010:10030   */\n      swap1\n      pop\n        /* \"#utility.yul\":9803:10036   */\n      swap2\n      swap1\n      pop\n      jump\t// out\n        /* \"#utility.yul\":10042:10138   */\n    tag_106:\n        /* \"#utility.yul\":10079:10086   */\n      0x00\n        /* \"#utility.yul\":10108:10132   */\n      tag_201\n        /* \"#utility.yul\":10126:10131   */\n      dup3\n        /* \"#utility.yul\":10108:10132   */\n      tag_83\n      jump\t// in\n    tag_201:\n        /* \"#utility.yul\":10097:10132   */\n      swap1\n      pop\n        /* \"#utility.yul\":10042:10138   */\n      swap2\n      swap1\n      pop\n      jump\t// out\n        /* \"#utility.yul\":10144:10262   */\n    tag_107:\n        /* \"#utility.yul\":10231:10255   */\n      tag_203\n        /* \"#utility.yul\":10249:10254   */\n      dup2\n        /* \"#utility.yul\":10231:10255   */\n      tag_106\n      jump\t// in\n    tag_203:\n        /* \"#utility.yul\":10226:10229   */\n      dup3\n        /* \"#utility.yul\":10219:10256   */\n      mstore\n        /* \"#utility.yul\":10144:10262   */\n      pop\n      pop\n      jump\t// out\n        /* \"#utility.yul\":10268:10821   */\n    tag_76:\n        /* \"#utility.yul\":10445:10449   */\n      0x00\n        /* \"#utility.yul\":10483:10486   */\n      0x80\n        /* \"#utility.yul\":10472:10481   */\n      dup3\n        /* \"#utility.yul\":10468:10487   */\n      add\n        /* \"#utility.yul\":10460:10487   */\n      swap1\n      pop\n        /* \"#utility.yul\":10497:10568   */\n      tag_205\n        /* \"#utility.yul\":10565:10566   */\n      0x00\n        /* \"#utility.yul\":10554:10563   */\n      dup4\n        /* \"#utility.yul\":10550:10567   */\n      add\n        /* \"#utility.yul\":10541:10547   */\n      dup8\n        /* \"#utility.yul\":10497:10568   */\n      tag_86\n      jump\t// in\n    tag_205:\n        /* \"#utility.yul\":10578:10650   */\n      tag_206\n        /* \"#utility.yul\":10646:10648   */\n      0x20\n        /* \"#utility.yul\":10635:10644   */\n      dup4\n        /* \"#utility.yul\":10631:10649   */\n      add\n        /* \"#utility.yul\":10622:10628   */\n      dup7\n        /* \"#utility.yul\":10578:10650   */\n      tag_107\n      jump\t// in\n    tag_206:\n        /* \"#utility.yul\":10660:10732   */\n      tag_207\n        /* \"#utility.yul\":10728:10730   */\n      0x40\n        /* \"#utility.yul\":10717:10726   */\n      dup4\n        /* \"#utility.yul\":10713:10731   */\n      add\n        /* \"#utility.yul\":10704:10710   */\n      dup6\n        /* \"#utility.yul\":10660:10732   */\n      tag_86\n      jump\t// in\n    tag_207:\n        /* \"#utility.yul\":10742:10814   */\n      tag_208\n        /* \"#utility.yul\":10810:10812   */\n      0x60\n        /* \"#utility.yul\":10799:10808   */\n      dup4\n        /* \"#utility.yul\":10795:10813   */\n      add\n        /* \"#utility.yul\":10786:10792   */\n      dup5\n        /* \"#utility.yul\":10742:10814   */\n      tag_86\n      jump\t// in\n    tag_208:\n        /* \"#utility.yul\":10268:10821   */\n      swap6\n      swap5\n      pop\n      pop\n      pop\n      pop\n      pop\n      jump\t// out\n\n    auxdata: 0xa26469706673582212205eb93050abe22568b466159abcc56e278d63ca6e60125f4c8f0bdffef7f79faf64736f6c634300081a0033\n}\n",
				"bytecode": {
					"linkReferences": {},
					"object": "6080604052348015600e575f80fd5b50604051610e58380380610e588339818101604052810190602e919060ab565b335f806101000a81548173ffffffffffffffffffffffffffffffffffffffff021916908373ffffffffffffffffffffffffffffffffffffffff160217905550806001819055505060d1565b5f80fd5b5f819050919050565b608d81607d565b81146096575f80fd5b50565b5f8151905060a5816086565b92915050565b5f6020828403121560bd5760bc6079565b5b5f60c8848285016099565b91505092915050565b610d7a806100de5f395ff3fe60806040526004361061006f575f3560e01c80638da5cb5b1161004d5780638da5cb5b14610104578063a901a3d71461012e578063c645e73914610156578063eebc3fb2146101725761006f565b806312dc901314610073578063419759f5146100b257806378e8faa6146100dc575b5f80fd5b34801561007e575f80fd5b5061009960048036038101906100949190610817565b61019c565b6040516100a994939291906108aa565b60405180910390f35b3480156100bd575f80fd5b506100c66101f3565b6040516100d391906108ed565b60405180910390f35b3480156100e7575f80fd5b5061010260048036038101906100fd9190610817565b6101f9565b005b34801561010f575f80fd5b506101186104f1565b6040516101259190610906565b60405180910390f35b348015610139575f80fd5b50610154600480360381019061014f9190610817565b610514565b005b610170600480360381019061016b9190610817565b610677565b005b34801561017d575f80fd5b506101866107da565b60405161019391906108ed565b60405180910390f35b6002602052805f5260405f205f91509050805f015f9054906101000a900473ffffffffffffffffffffffffffffffffffffffff1690806001015490806002015490806003015f9054906101000a900460ff16905084565b60015481565b5f60025f8381526020019081526020015f209050610e10816002015461021f919061094c565b4211610260576040517f08c379a0000000000000000000000000000000000000000000000000000000008152600401610257906109d9565b60405180910390fd5b3373ffffffffffffffffffffffffffffffffffffffff16815f015f9054906101000a900473ffffffffffffffffffffffffffffffffffffffff1673ffffffffffffffffffffffffffffffffffffffff16148061030657505f8054906101000a900473ffffffffffffffffffffffffffffffffffffffff1673ffffffffffffffffffffffffffffffffffffffff163373ffffffffffffffffffffffffffffffffffffffff16145b610345576040517f08c379a000000000000000000000000000000000000000000000000000000000815260040161033c90610a41565b60405180910390fd5b806003015f9054906101000a900460ff161561042b57805f015f9054906101000a900473ffffffffffffffffffffffffffffffffffffffff1673ffffffffffffffffffffffffffffffffffffffff166108fc826001015490811502906040515f60405180830381858888f193505050501580156103c4573d5f803e3d5ffd5b507f69187e59ebb7ab44cba5434886e4e6cde1412568f3483279dc99de772cb2540582825f015f9054906101000a900473ffffffffffffffffffffffffffffffffffffffff16836001015460405161041e93929190610aba565b60405180910390a1610493565b5f8054906101000a900473ffffffffffffffffffffffffffffffffffffffff1673ffffffffffffffffffffffffffffffffffffffff166108fc826001015490811502906040515f60405180830381858888f19350505050158015610491573d5f803e3d5ffd5b505b60025f8381526020019081526020015f205f8082015f6101000a81549073ffffffffffffffffffffffffffffffffffffffff0219169055600182015f9055600282015f9055600382015f6101000a81549060ff021916905550505050565b5f8054906101000a900473ffffffffffffffffffffffffffffffffffffffff1681565b5f60025f8381526020019081526020015f2090505f8054906101000a900473ffffffffffffffffffffffffffffffffffffffff1673ffffffffffffffffffffffffffffffffffffffff163373ffffffffffffffffffffffffffffffffffffffff16146105b5576040517f08c379a00000000000000000000000000000000000000000000000000000000081526004016105ac90610b5f565b60405180910390fd5b42816002015411156105fc576040517f08c379a00000000000000000000000000000000000000000000000000000000081526004016105f390610bed565b60405180910390fd5b6001816003015f6101000a81548160ff0219169083151502179055507fe3a8741f0a96c7a61f28b5cdbc83f74840a063f631d17bf44e03c098d799d02e82825f015f9054906101000a900473ffffffffffffffffffffffffffffffffffffffff1660405161066b929190610c0b565b60405180910390a15050565b60015434146106bb576040517f08c379a00000000000000000000000000000000000000000000000000000000081526004016106b290610c7c565b60405180910390fd5b60035f8154809291906106cd90610c9a565b919050555060405180608001604052803373ffffffffffffffffffffffffffffffffffffffff1681526020013481526020018281526020015f151581525060025f60035481526020019081526020015f205f820151815f015f6101000a81548173ffffffffffffffffffffffffffffffffffffffff021916908373ffffffffffffffffffffffffffffffffffffffff16021790555060208201518160010155604082015181600201556060820151816003015f6101000a81548160ff0219169083151502179055509050507f8e2b2ed967488b4d9dba4f982847874cc32ca21f3e98bf28b618c970735c59396003543383346040516107cf9493929190610d01565b60405180910390a150565b60035481565b5f80fd5b5f819050919050565b6107f6816107e4565b8114610800575f80fd5b50565b5f81359050610811816107ed565b92915050565b5f6020828403121561082c5761082b6107e0565b5b5f61083984828501610803565b91505092915050565b5f73ffffffffffffffffffffffffffffffffffffffff82169050919050565b5f61086b82610842565b9050919050565b61087b81610861565b82525050565b61088a816107e4565b82525050565b5f8115159050919050565b6108a481610890565b82525050565b5f6080820190506108bd5f830187610872565b6108ca6020830186610881565b6108d76040830185610881565b6108e4606083018461089b565b95945050505050565b5f6020820190506109005f830184610881565b92915050565b5f6020820190506109195f830184610872565b92915050565b7f4e487b71000000000000000000000000000000000000000000000000000000005f52601160045260245ffd5b5f610956826107e4565b9150610961836107e4565b92508282019050808211156109795761097861091f565b5b92915050565b5f82825260208201905092915050565b7f4170706f696e746d656e742074696d65206e6f742070617373656400000000005f82015250565b5f6109c3601b8361097f565b91506109ce8261098f565b602082019050919050565b5f6020820190508181035f8301526109f0816109b7565b9050919050565b7f556e617574686f72697a656400000000000000000000000000000000000000005f82015250565b5f610a2b600c8361097f565b9150610a36826109f7565b602082019050919050565b5f6020820190508181035f830152610a5881610a1f565b9050919050565b5f819050919050565b5f610a82610a7d610a7884610842565b610a5f565b610842565b9050919050565b5f610a9382610a68565b9050919050565b5f610aa482610a89565b9050919050565b610ab481610a9a565b82525050565b5f606082019050610acd5f830186610881565b610ada6020830185610aab565b610ae76040830184610881565b949350505050565b7f4f6e6c7920746865206f776e65722063616e206d61726b20617474656e64616e5f8201527f6365000000000000000000000000000000000000000000000000000000000000602082015250565b5f610b4960228361097f565b9150610b5482610aef565b604082019050919050565b5f6020820190508181035f830152610b7681610b3d565b9050919050565b7f4170706f696e746d656e742074696d6520686173206e6f742079657420636f6d5f8201527f6500000000000000000000000000000000000000000000000000000000000000602082015250565b5f610bd760218361097f565b9150610be282610b7d565b604082019050919050565b5f6020820190508181035f830152610c0481610bcb565b9050919050565b5f604082019050610c1e5f830185610881565b610c2b6020830184610aab565b9392505050565b7f4465706f73697420616d6f756e74206e6f7420636f72726563740000000000005f82015250565b5f610c66601a8361097f565b9150610c7182610c32565b602082019050919050565b5f6020820190508181035f830152610c9381610c5a565b9050919050565b5f610ca4826107e4565b91507fffffffffffffffffffffffffffffffffffffffffffffffffffffffffffffffff8203610cd657610cd561091f565b5b600182019050919050565b5f610ceb82610842565b9050919050565b610cfb81610ce1565b82525050565b5f608082019050610d145f830187610881565b610d216020830186610cf2565b610d2e6040830185610881565b610d3b6060830184610881565b9594505050505056fea26469706673582212205eb93050abe22568b466159abcc56e278d63ca6e60125f4c8f0bdffef7f79faf64736f6c634300081a0033",
					"opcodes": "PUSH1 0x80 PUSH1 0x40 MSTORE CALLVALUE DUP1 ISZERO PUSH1 0xE JUMPI PUSH0 DUP1 REVERT JUMPDEST POP PUSH1 0x40 MLOAD PUSH2 0xE58 CODESIZE SUB DUP1 PUSH2 0xE58 DUP4 CODECOPY DUP2 DUP2 ADD PUSH1 0x40 MSTORE DUP2 ADD SWAP1 PUSH1 0x2E SWAP2 SWAP1 PUSH1 0xAB JUMP JUMPDEST CALLER PUSH0 DUP1 PUSH2 0x100 EXP DUP2 SLOAD DUP2 PUSH20 0xFFFFFFFFFFFFFFFFFFFFFFFFFFFFFFFFFFFFFFFF MUL NOT AND SWAP1 DUP4 PUSH20 0xFFFFFFFFFFFFFFFFFFFFFFFFFFFFFFFFFFFFFFFF AND MUL OR SWAP1 SSTORE POP DUP1 PUSH1 0x1 DUP2 SWAP1 SSTORE POP POP PUSH1 0xD1 JUMP JUMPDEST PUSH0 DUP1 REVERT JUMPDEST PUSH0 DUP2 SWAP1 POP SWAP2 SWAP1 POP JUMP JUMPDEST PUSH1 0x8D DUP2 PUSH1 0x7D JUMP JUMPDEST DUP2 EQ PUSH1 0x96 JUMPI PUSH0 DUP1 REVERT JUMPDEST POP JUMP JUMPDEST PUSH0 DUP2 MLOAD SWAP1 POP PUSH1 0xA5 DUP2 PUSH1 0x86 JUMP JUMPDEST SWAP3 SWAP2 POP POP JUMP JUMPDEST PUSH0 PUSH1 0x20 DUP3 DUP5 SUB SLT ISZERO PUSH1 0xBD JUMPI PUSH1 0xBC PUSH1 0x79 JUMP JUMPDEST JUMPDEST PUSH0 PUSH1 0xC8 DUP5 DUP3 DUP6 ADD PUSH1 0x99 JUMP JUMPDEST SWAP2 POP POP SWAP3 SWAP2 POP POP JUMP JUMPDEST PUSH2 0xD7A DUP1 PUSH2 0xDE PUSH0 CODECOPY PUSH0 RETURN INVALID PUSH1 0x80 PUSH1 0x40 MSTORE PUSH1 0x4 CALLDATASIZE LT PUSH2 0x6F JUMPI PUSH0 CALLDATALOAD PUSH1 0xE0 SHR DUP1 PUSH4 0x8DA5CB5B GT PUSH2 0x4D JUMPI DUP1 PUSH4 0x8DA5CB5B EQ PUSH2 0x104 JUMPI DUP1 PUSH4 0xA901A3D7 EQ PUSH2 0x12E JUMPI DUP1 PUSH4 0xC645E739 EQ PUSH2 0x156 JUMPI DUP1 PUSH4 0xEEBC3FB2 EQ PUSH2 0x172 JUMPI PUSH2 0x6F JUMP JUMPDEST DUP1 PUSH4 0x12DC9013 EQ PUSH2 0x73 JUMPI DUP1 PUSH4 0x419759F5 EQ PUSH2 0xB2 JUMPI DUP1 PUSH4 0x78E8FAA6 EQ PUSH2 0xDC JUMPI JUMPDEST PUSH0 DUP1 REVERT JUMPDEST CALLVALUE DUP1 ISZERO PUSH2 0x7E JUMPI PUSH0 DUP1 REVERT JUMPDEST POP PUSH2 0x99 PUSH1 0x4 DUP1 CALLDATASIZE SUB DUP2 ADD SWAP1 PUSH2 0x94 SWAP2 SWAP1 PUSH2 0x817 JUMP JUMPDEST PUSH2 0x19C JUMP JUMPDEST PUSH1 0x40 MLOAD PUSH2 0xA9 SWAP5 SWAP4 SWAP3 SWAP2 SWAP1 PUSH2 0x8AA JUMP JUMPDEST PUSH1 0x40 MLOAD DUP1 SWAP2 SUB SWAP1 RETURN JUMPDEST CALLVALUE DUP1 ISZERO PUSH2 0xBD JUMPI PUSH0 DUP1 REVERT JUMPDEST POP PUSH2 0xC6 PUSH2 0x1F3 JUMP JUMPDEST PUSH1 0x40 MLOAD PUSH2 0xD3 SWAP2 SWAP1 PUSH2 0x8ED JUMP JUMPDEST PUSH1 0x40 MLOAD DUP1 SWAP2 SUB SWAP1 RETURN JUMPDEST CALLVALUE DUP1 ISZERO PUSH2 0xE7 JUMPI PUSH0 DUP1 REVERT JUMPDEST POP PUSH2 0x102 PUSH1 0x4 DUP1 CALLDATASIZE SUB DUP2 ADD SWAP1 PUSH2 0xFD SWAP2 SWAP1 PUSH2 0x817 JUMP JUMPDEST PUSH2 0x1F9 JUMP JUMPDEST STOP JUMPDEST CALLVALUE DUP1 ISZERO PUSH2 0x10F JUMPI PUSH0 DUP1 REVERT JUMPDEST POP PUSH2 0x118 PUSH2 0x4F1 JUMP JUMPDEST PUSH1 0x40 MLOAD PUSH2 0x125 SWAP2 SWAP1 PUSH2 0x906 JUMP JUMPDEST PUSH1 0x40 MLOAD DUP1 SWAP2 SUB SWAP1 RETURN JUMPDEST CALLVALUE DUP1 ISZERO PUSH2 0x139 JUMPI PUSH0 DUP1 REVERT JUMPDEST POP PUSH2 0x154 PUSH1 0x4 DUP1 CALLDATASIZE SUB DUP2 ADD SWAP1 PUSH2 0x14F SWAP2 SWAP1 PUSH2 0x817 JUMP JUMPDEST PUSH2 0x514 JUMP JUMPDEST STOP JUMPDEST PUSH2 0x170 PUSH1 0x4 DUP1 CALLDATASIZE SUB DUP2 ADD SWAP1 PUSH2 0x16B SWAP2 SWAP1 PUSH2 0x817 JUMP JUMPDEST PUSH2 0x677 JUMP JUMPDEST STOP JUMPDEST CALLVALUE DUP1 ISZERO PUSH2 0x17D JUMPI PUSH0 DUP1 REVERT JUMPDEST POP PUSH2 0x186 PUSH2 0x7DA JUMP JUMPDEST PUSH1 0x40 MLOAD PUSH2 0x193 SWAP2 SWAP1 PUSH2 0x8ED JUMP JUMPDEST PUSH1 0x40 MLOAD DUP1 SWAP2 SUB SWAP1 RETURN JUMPDEST PUSH1 0x2 PUSH1 0x20 MSTORE DUP1 PUSH0 MSTORE PUSH1 0x40 PUSH0 KECCAK256 PUSH0 SWAP2 POP SWAP1 POP DUP1 PUSH0 ADD PUSH0 SWAP1 SLOAD SWAP1 PUSH2 0x100 EXP SWAP1 DIV PUSH20 0xFFFFFFFFFFFFFFFFFFFFFFFFFFFFFFFFFFFFFFFF AND SWAP1 DUP1 PUSH1 0x1 ADD SLOAD SWAP1 DUP1 PUSH1 0x2 ADD SLOAD SWAP1 DUP1 PUSH1 0x3 ADD PUSH0 SWAP1 SLOAD SWAP1 PUSH2 0x100 EXP SWAP1 DIV PUSH1 0xFF AND SWAP1 POP DUP5 JUMP JUMPDEST PUSH1 0x1 SLOAD DUP2 JUMP JUMPDEST PUSH0 PUSH1 0x2 PUSH0 DUP4 DUP2 MSTORE PUSH1 0x20 ADD SWAP1 DUP2 MSTORE PUSH1 0x20 ADD PUSH0 KECCAK256 SWAP1 POP PUSH2 0xE10 DUP2 PUSH1 0x2 ADD SLOAD PUSH2 0x21F SWAP2 SWAP1 PUSH2 0x94C JUMP JUMPDEST TIMESTAMP GT PUSH2 0x260 JUMPI PUSH1 0x40 MLOAD PUSH32 0x8C379A000000000000000000000000000000000000000000000000000000000 DUP2 MSTORE PUSH1 0x4 ADD PUSH2 0x257 SWAP1 PUSH2 0x9D9 JUMP JUMPDEST PUSH1 0x40 MLOAD DUP1 SWAP2 SUB SWAP1 REVERT JUMPDEST CALLER PUSH20 0xFFFFFFFFFFFFFFFFFFFFFFFFFFFFFFFFFFFFFFFF AND DUP2 PUSH0 ADD PUSH0 SWAP1 SLOAD SWAP1 PUSH2 0x100 EXP SWAP1 DIV PUSH20 0xFFFFFFFFFFFFFFFFFFFFFFFFFFFFFFFFFFFFFFFF AND PUSH20 0xFFFFFFFFFFFFFFFFFFFFFFFFFFFFFFFFFFFFFFFF AND EQ DUP1 PUSH2 0x306 JUMPI POP PUSH0 DUP1 SLOAD SWAP1 PUSH2 0x100 EXP SWAP1 DIV PUSH20 0xFFFFFFFFFFFFFFFFFFFFFFFFFFFFFFFFFFFFFFFF AND PUSH20 0xFFFFFFFFFFFFFFFFFFFFFFFFFFFFFFFFFFFFFFFF AND CALLER PUSH20 0xFFFFFFFFFFFFFFFFFFFFFFFFFFFFFFFFFFFFFFFF AND EQ JUMPDEST PUSH2 0x345 JUMPI PUSH1 0x40 MLOAD PUSH32 0x8C379A000000000000000000000000000000000000000000000000000000000 DUP2 MSTORE PUSH1 0x4 ADD PUSH2 0x33C SWAP1 PUSH2 0xA41 JUMP JUMPDEST PUSH1 0x40 MLOAD DUP1 SWAP2 SUB SWAP1 REVERT JUMPDEST DUP1 PUSH1 0x3 ADD PUSH0 SWAP1 SLOAD SWAP1 PUSH2 0x100 EXP SWAP1 DIV PUSH1 0xFF AND ISZERO PUSH2 0x42B JUMPI DUP1 PUSH0 ADD PUSH0 SWAP1 SLOAD SWAP1 PUSH2 0x100 EXP SWAP1 DIV PUSH20 0xFFFFFFFFFFFFFFFFFFFFFFFFFFFFFFFFFFFFFFFF AND PUSH20 0xFFFFFFFFFFFFFFFFFFFFFFFFFFFFFFFFFFFFFFFF AND PUSH2 0x8FC DUP3 PUSH1 0x1 ADD SLOAD SWAP1 DUP2 ISZERO MUL SWAP1 PUSH1 0x40 MLOAD PUSH0 PUSH1 0x40 MLOAD DUP1 DUP4 SUB DUP2 DUP6 DUP9 DUP9 CALL SWAP4 POP POP POP POP ISZERO DUP1 ISZERO PUSH2 0x3C4 JUMPI RETURNDATASIZE PUSH0 DUP1 RETURNDATACOPY RETURNDATASIZE PUSH0 REVERT JUMPDEST POP PUSH32 0x69187E59EBB7AB44CBA5434886E4E6CDE1412568F3483279DC99DE772CB25405 DUP3 DUP3 PUSH0 ADD PUSH0 SWAP1 SLOAD SWAP1 PUSH2 0x100 EXP SWAP1 DIV PUSH20 0xFFFFFFFFFFFFFFFFFFFFFFFFFFFFFFFFFFFFFFFF AND DUP4 PUSH1 0x1 ADD SLOAD PUSH1 0x40 MLOAD PUSH2 0x41E SWAP4 SWAP3 SWAP2 SWAP1 PUSH2 0xABA JUMP JUMPDEST PUSH1 0x40 MLOAD DUP1 SWAP2 SUB SWAP1 LOG1 PUSH2 0x493 JUMP JUMPDEST PUSH0 DUP1 SLOAD SWAP1 PUSH2 0x100 EXP SWAP1 DIV PUSH20 0xFFFFFFFFFFFFFFFFFFFFFFFFFFFFFFFFFFFFFFFF AND PUSH20 0xFFFFFFFFFFFFFFFFFFFFFFFFFFFFFFFFFFFFFFFF AND PUSH2 0x8FC DUP3 PUSH1 0x1 ADD SLOAD SWAP1 DUP2 ISZERO MUL SWAP1 PUSH1 0x40 MLOAD PUSH0 PUSH1 0x40 MLOAD DUP1 DUP4 SUB DUP2 DUP6 DUP9 DUP9 CALL SWAP4 POP POP POP POP ISZERO DUP1 ISZERO PUSH2 0x491 JUMPI RETURNDATASIZE PUSH0 DUP1 RETURNDATACOPY RETURNDATASIZE PUSH0 REVERT JUMPDEST POP JUMPDEST PUSH1 0x2 PUSH0 DUP4 DUP2 MSTORE PUSH1 0x20 ADD SWAP1 DUP2 MSTORE PUSH1 0x20 ADD PUSH0 KECCAK256 PUSH0 DUP1 DUP3 ADD PUSH0 PUSH2 0x100 EXP DUP2 SLOAD SWAP1 PUSH20 0xFFFFFFFFFFFFFFFFFFFFFFFFFFFFFFFFFFFFFFFF MUL NOT AND SWAP1 SSTORE PUSH1 0x1 DUP3 ADD PUSH0 SWAP1 SSTORE PUSH1 0x2 DUP3 ADD PUSH0 SWAP1 SSTORE PUSH1 0x3 DUP3 ADD PUSH0 PUSH2 0x100 EXP DUP2 SLOAD SWAP1 PUSH1 0xFF MUL NOT AND SWAP1 SSTORE POP POP POP POP JUMP JUMPDEST PUSH0 DUP1 SLOAD SWAP1 PUSH2 0x100 EXP SWAP1 DIV PUSH20 0xFFFFFFFFFFFFFFFFFFFFFFFFFFFFFFFFFFFFFFFF AND DUP2 JUMP JUMPDEST PUSH0 PUSH1 0x2 PUSH0 DUP4 DUP2 MSTORE PUSH1 0x20 ADD SWAP1 DUP2 MSTORE PUSH1 0x20 ADD PUSH0 KECCAK256 SWAP1 POP PUSH0 DUP1 SLOAD SWAP1 PUSH2 0x100 EXP SWAP1 DIV PUSH20 0xFFFFFFFFFFFFFFFFFFFFFFFFFFFFFFFFFFFFFFFF AND PUSH20 0xFFFFFFFFFFFFFFFFFFFFFFFFFFFFFFFFFFFFFFFF AND CALLER PUSH20 0xFFFFFFFFFFFFFFFFFFFFFFFFFFFFFFFFFFFFFFFF AND EQ PUSH2 0x5B5 JUMPI PUSH1 0x40 MLOAD PUSH32 0x8C379A000000000000000000000000000000000000000000000000000000000 DUP2 MSTORE PUSH1 0x4 ADD PUSH2 0x5AC SWAP1 PUSH2 0xB5F JUMP JUMPDEST PUSH1 0x40 MLOAD DUP1 SWAP2 SUB SWAP1 REVERT JUMPDEST TIMESTAMP DUP2 PUSH1 0x2 ADD SLOAD GT ISZERO PUSH2 0x5FC JUMPI PUSH1 0x40 MLOAD PUSH32 0x8C379A000000000000000000000000000000000000000000000000000000000 DUP2 MSTORE PUSH1 0x4 ADD PUSH2 0x5F3 SWAP1 PUSH2 0xBED JUMP JUMPDEST PUSH1 0x40 MLOAD DUP1 SWAP2 SUB SWAP1 REVERT JUMPDEST PUSH1 0x1 DUP2 PUSH1 0x3 ADD PUSH0 PUSH2 0x100 EXP DUP2 SLOAD DUP2 PUSH1 0xFF MUL NOT AND SWAP1 DUP4 ISZERO ISZERO MUL OR SWAP1 SSTORE POP PUSH32 0xE3A8741F0A96C7A61F28B5CDBC83F74840A063F631D17BF44E03C098D799D02E DUP3 DUP3 PUSH0 ADD PUSH0 SWAP1 SLOAD SWAP1 PUSH2 0x100 EXP SWAP1 DIV PUSH20 0xFFFFFFFFFFFFFFFFFFFFFFFFFFFFFFFFFFFFFFFF AND PUSH1 0x40 MLOAD PUSH2 0x66B SWAP3 SWAP2 SWAP1 PUSH2 0xC0B JUMP JUMPDEST PUSH1 0x40 MLOAD DUP1 SWAP2 SUB SWAP1 LOG1 POP POP JUMP JUMPDEST PUSH1 0x1 SLOAD CALLVALUE EQ PUSH2 0x6BB JUMPI PUSH1 0x40 MLOAD PUSH32 0x8C379A000000000000000000000000000000000000000000000000000000000 DUP2 MSTORE PUSH1 0x4 ADD PUSH2 0x6B2 SWAP1 PUSH2 0xC7C JUMP JUMPDEST PUSH1 0x40 MLOAD DUP1 SWAP2 SUB SWAP1 REVERT JUMPDEST PUSH1 0x3 PUSH0 DUP2 SLOAD DUP1 SWAP3 SWAP2 SWAP1 PUSH2 0x6CD SWAP1 PUSH2 0xC9A JUMP JUMPDEST SWAP2 SWAP1 POP SSTORE POP PUSH1 0x40 MLOAD DUP1 PUSH1 0x80 ADD PUSH1 0x40 MSTORE DUP1 CALLER PUSH20 0xFFFFFFFFFFFFFFFFFFFFFFFFFFFFFFFFFFFFFFFF AND DUP2 MSTORE PUSH1 0x20 ADD CALLVALUE DUP2 MSTORE PUSH1 0x20 ADD DUP3 DUP2 MSTORE PUSH1 0x20 ADD PUSH0 ISZERO ISZERO DUP2 MSTORE POP PUSH1 0x2 PUSH0 PUSH1 0x3 SLOAD DUP2 MSTORE PUSH1 0x20 ADD SWAP1 DUP2 MSTORE PUSH1 0x20 ADD PUSH0 KECCAK256 PUSH0 DUP3 ADD MLOAD DUP2 PUSH0 ADD PUSH0 PUSH2 0x100 EXP DUP2 SLOAD DUP2 PUSH20 0xFFFFFFFFFFFFFFFFFFFFFFFFFFFFFFFFFFFFFFFF MUL NOT AND SWAP1 DUP4 PUSH20 0xFFFFFFFFFFFFFFFFFFFFFFFFFFFFFFFFFFFFFFFF AND MUL OR SWAP1 SSTORE POP PUSH1 0x20 DUP3 ADD MLOAD DUP2 PUSH1 0x1 ADD SSTORE PUSH1 0x40 DUP3 ADD MLOAD DUP2 PUSH1 0x2 ADD SSTORE PUSH1 0x60 DUP3 ADD MLOAD DUP2 PUSH1 0x3 ADD PUSH0 PUSH2 0x100 EXP DUP2 SLOAD DUP2 PUSH1 0xFF MUL NOT AND SWAP1 DUP4 ISZERO ISZERO MUL OR SWAP1 SSTORE POP SWAP1 POP POP PUSH32 0x8E2B2ED967488B4D9DBA4F982847874CC32CA21F3E98BF28B618C970735C5939 PUSH1 0x3 SLOAD CALLER DUP4 CALLVALUE PUSH1 0x40 MLOAD PUSH2 0x7CF SWAP5 SWAP4 SWAP3 SWAP2 SWAP1 PUSH2 0xD01 JUMP JUMPDEST PUSH1 0x40 MLOAD DUP1 SWAP2 SUB SWAP1 LOG1 POP JUMP JUMPDEST PUSH1 0x3 SLOAD DUP2 JUMP JUMPDEST PUSH0 DUP1 REVERT JUMPDEST PUSH0 DUP2 SWAP1 POP SWAP2 SWAP1 POP JUMP JUMPDEST PUSH2 0x7F6 DUP2 PUSH2 0x7E4 JUMP JUMPDEST DUP2 EQ PUSH2 0x800 JUMPI PUSH0 DUP1 REVERT JUMPDEST POP JUMP JUMPDEST PUSH0 DUP2 CALLDATALOAD SWAP1 POP PUSH2 0x811 DUP2 PUSH2 0x7ED JUMP JUMPDEST SWAP3 SWAP2 POP POP JUMP JUMPDEST PUSH0 PUSH1 0x20 DUP3 DUP5 SUB SLT ISZERO PUSH2 0x82C JUMPI PUSH2 0x82B PUSH2 0x7E0 JUMP JUMPDEST JUMPDEST PUSH0 PUSH2 0x839 DUP5 DUP3 DUP6 ADD PUSH2 0x803 JUMP JUMPDEST SWAP2 POP POP SWAP3 SWAP2 POP POP JUMP JUMPDEST PUSH0 PUSH20 0xFFFFFFFFFFFFFFFFFFFFFFFFFFFFFFFFFFFFFFFF DUP3 AND SWAP1 POP SWAP2 SWAP1 POP JUMP JUMPDEST PUSH0 PUSH2 0x86B DUP3 PUSH2 0x842 JUMP JUMPDEST SWAP1 POP SWAP2 SWAP1 POP JUMP JUMPDEST PUSH2 0x87B DUP2 PUSH2 0x861 JUMP JUMPDEST DUP3 MSTORE POP POP JUMP JUMPDEST PUSH2 0x88A DUP2 PUSH2 0x7E4 JUMP JUMPDEST DUP3 MSTORE POP POP JUMP JUMPDEST PUSH0 DUP2 ISZERO ISZERO SWAP1 POP SWAP2 SWAP1 POP JUMP JUMPDEST PUSH2 0x8A4 DUP2 PUSH2 0x890 JUMP JUMPDEST DUP3 MSTORE POP POP JUMP JUMPDEST PUSH0 PUSH1 0x80 DUP3 ADD SWAP1 POP PUSH2 0x8BD PUSH0 DUP4 ADD DUP8 PUSH2 0x872 JUMP JUMPDEST PUSH2 0x8CA PUSH1 0x20 DUP4 ADD DUP7 PUSH2 0x881 JUMP JUMPDEST PUSH2 0x8D7 PUSH1 0x40 DUP4 ADD DUP6 PUSH2 0x881 JUMP JUMPDEST PUSH2 0x8E4 PUSH1 0x60 DUP4 ADD DUP5 PUSH2 0x89B JUMP JUMPDEST SWAP6 SWAP5 POP POP POP POP POP JUMP JUMPDEST PUSH0 PUSH1 0x20 DUP3 ADD SWAP1 POP PUSH2 0x900 PUSH0 DUP4 ADD DUP5 PUSH2 0x881 JUMP JUMPDEST SWAP3 SWAP2 POP POP JUMP JUMPDEST PUSH0 PUSH1 0x20 DUP3 ADD SWAP1 POP PUSH2 0x919 PUSH0 DUP4 ADD DUP5 PUSH2 0x872 JUMP JUMPDEST SWAP3 SWAP2 POP POP JUMP JUMPDEST PUSH32 0x4E487B7100000000000000000000000000000000000000000000000000000000 PUSH0 MSTORE PUSH1 0x11 PUSH1 0x4 MSTORE PUSH1 0x24 PUSH0 REVERT JUMPDEST PUSH0 PUSH2 0x956 DUP3 PUSH2 0x7E4 JUMP JUMPDEST SWAP2 POP PUSH2 0x961 DUP4 PUSH2 0x7E4 JUMP JUMPDEST SWAP3 POP DUP3 DUP3 ADD SWAP1 POP DUP1 DUP3 GT ISZERO PUSH2 0x979 JUMPI PUSH2 0x978 PUSH2 0x91F JUMP JUMPDEST JUMPDEST SWAP3 SWAP2 POP POP JUMP JUMPDEST PUSH0 DUP3 DUP3 MSTORE PUSH1 0x20 DUP3 ADD SWAP1 POP SWAP3 SWAP2 POP POP JUMP JUMPDEST PUSH32 0x4170706F696E746D656E742074696D65206E6F74207061737365640000000000 PUSH0 DUP3 ADD MSTORE POP JUMP JUMPDEST PUSH0 PUSH2 0x9C3 PUSH1 0x1B DUP4 PUSH2 0x97F JUMP JUMPDEST SWAP2 POP PUSH2 0x9CE DUP3 PUSH2 0x98F JUMP JUMPDEST PUSH1 0x20 DUP3 ADD SWAP1 POP SWAP2 SWAP1 POP JUMP JUMPDEST PUSH0 PUSH1 0x20 DUP3 ADD SWAP1 POP DUP2 DUP2 SUB PUSH0 DUP4 ADD MSTORE PUSH2 0x9F0 DUP2 PUSH2 0x9B7 JUMP JUMPDEST SWAP1 POP SWAP2 SWAP1 POP JUMP JUMPDEST PUSH32 0x556E617574686F72697A65640000000000000000000000000000000000000000 PUSH0 DUP3 ADD MSTORE POP JUMP JUMPDEST PUSH0 PUSH2 0xA2B PUSH1 0xC DUP4 PUSH2 0x97F JUMP JUMPDEST SWAP2 POP PUSH2 0xA36 DUP3 PUSH2 0x9F7 JUMP JUMPDEST PUSH1 0x20 DUP3 ADD SWAP1 POP SWAP2 SWAP1 POP JUMP JUMPDEST PUSH0 PUSH1 0x20 DUP3 ADD SWAP1 POP DUP2 DUP2 SUB PUSH0 DUP4 ADD MSTORE PUSH2 0xA58 DUP2 PUSH2 0xA1F JUMP JUMPDEST SWAP1 POP SWAP2 SWAP1 POP JUMP JUMPDEST PUSH0 DUP2 SWAP1 POP SWAP2 SWAP1 POP JUMP JUMPDEST PUSH0 PUSH2 0xA82 PUSH2 0xA7D PUSH2 0xA78 DUP5 PUSH2 0x842 JUMP JUMPDEST PUSH2 0xA5F JUMP JUMPDEST PUSH2 0x842 JUMP JUMPDEST SWAP1 POP SWAP2 SWAP1 POP JUMP JUMPDEST PUSH0 PUSH2 0xA93 DUP3 PUSH2 0xA68 JUMP JUMPDEST SWAP1 POP SWAP2 SWAP1 POP JUMP JUMPDEST PUSH0 PUSH2 0xAA4 DUP3 PUSH2 0xA89 JUMP JUMPDEST SWAP1 POP SWAP2 SWAP1 POP JUMP JUMPDEST PUSH2 0xAB4 DUP2 PUSH2 0xA9A JUMP JUMPDEST DUP3 MSTORE POP POP JUMP JUMPDEST PUSH0 PUSH1 0x60 DUP3 ADD SWAP1 POP PUSH2 0xACD PUSH0 DUP4 ADD DUP7 PUSH2 0x881 JUMP JUMPDEST PUSH2 0xADA PUSH1 0x20 DUP4 ADD DUP6 PUSH2 0xAAB JUMP JUMPDEST PUSH2 0xAE7 PUSH1 0x40 DUP4 ADD DUP5 PUSH2 0x881 JUMP JUMPDEST SWAP5 SWAP4 POP POP POP POP JUMP JUMPDEST PUSH32 0x4F6E6C7920746865206F776E65722063616E206D61726B20617474656E64616E PUSH0 DUP3 ADD MSTORE PUSH32 0x6365000000000000000000000000000000000000000000000000000000000000 PUSH1 0x20 DUP3 ADD MSTORE POP JUMP JUMPDEST PUSH0 PUSH2 0xB49 PUSH1 0x22 DUP4 PUSH2 0x97F JUMP JUMPDEST SWAP2 POP PUSH2 0xB54 DUP3 PUSH2 0xAEF JUMP JUMPDEST PUSH1 0x40 DUP3 ADD SWAP1 POP SWAP2 SWAP1 POP JUMP JUMPDEST PUSH0 PUSH1 0x20 DUP3 ADD SWAP1 POP DUP2 DUP2 SUB PUSH0 DUP4 ADD MSTORE PUSH2 0xB76 DUP2 PUSH2 0xB3D JUMP JUMPDEST SWAP1 POP SWAP2 SWAP1 POP JUMP JUMPDEST PUSH32 0x4170706F696E746D656E742074696D6520686173206E6F742079657420636F6D PUSH0 DUP3 ADD MSTORE PUSH32 0x6500000000000000000000000000000000000000000000000000000000000000 PUSH1 0x20 DUP3 ADD MSTORE POP JUMP JUMPDEST PUSH0 PUSH2 0xBD7 PUSH1 0x21 DUP4 PUSH2 0x97F JUMP JUMPDEST SWAP2 POP PUSH2 0xBE2 DUP3 PUSH2 0xB7D JUMP JUMPDEST PUSH1 0x40 DUP3 ADD SWAP1 POP SWAP2 SWAP1 POP JUMP JUMPDEST PUSH0 PUSH1 0x20 DUP3 ADD SWAP1 POP DUP2 DUP2 SUB PUSH0 DUP4 ADD MSTORE PUSH2 0xC04 DUP2 PUSH2 0xBCB JUMP JUMPDEST SWAP1 POP SWAP2 SWAP1 POP JUMP JUMPDEST PUSH0 PUSH1 0x40 DUP3 ADD SWAP1 POP PUSH2 0xC1E PUSH0 DUP4 ADD DUP6 PUSH2 0x881 JUMP JUMPDEST PUSH2 0xC2B PUSH1 0x20 DUP4 ADD DUP5 PUSH2 0xAAB JUMP JUMPDEST SWAP4 SWAP3 POP POP POP JUMP JUMPDEST PUSH32 0x4465706F73697420616D6F756E74206E6F7420636F7272656374000000000000 PUSH0 DUP3 ADD MSTORE POP JUMP JUMPDEST PUSH0 PUSH2 0xC66 PUSH1 0x1A DUP4 PUSH2 0x97F JUMP JUMPDEST SWAP2 POP PUSH2 0xC71 DUP3 PUSH2 0xC32 JUMP JUMPDEST PUSH1 0x20 DUP3 ADD SWAP1 POP SWAP2 SWAP1 POP JUMP JUMPDEST PUSH0 PUSH1 0x20 DUP3 ADD SWAP1 POP DUP2 DUP2 SUB PUSH0 DUP4 ADD MSTORE PUSH2 0xC93 DUP2 PUSH2 0xC5A JUMP JUMPDEST SWAP1 POP SWAP2 SWAP1 POP JUMP JUMPDEST PUSH0 PUSH2 0xCA4 DUP3 PUSH2 0x7E4 JUMP JUMPDEST SWAP2 POP PUSH32 0xFFFFFFFFFFFFFFFFFFFFFFFFFFFFFFFFFFFFFFFFFFFFFFFFFFFFFFFFFFFFFFFF DUP3 SUB PUSH2 0xCD6 JUMPI PUSH2 0xCD5 PUSH2 0x91F JUMP JUMPDEST JUMPDEST PUSH1 0x1 DUP3 ADD SWAP1 POP SWAP2 SWAP1 POP JUMP JUMPDEST PUSH0 PUSH2 0xCEB DUP3 PUSH2 0x842 JUMP JUMPDEST SWAP1 POP SWAP2 SWAP1 POP JUMP JUMPDEST PUSH2 0xCFB DUP2 PUSH2 0xCE1 JUMP JUMPDEST DUP3 MSTORE POP POP JUMP JUMPDEST PUSH0 PUSH1 0x80 DUP3 ADD SWAP1 POP PUSH2 0xD14 PUSH0 DUP4 ADD DUP8 PUSH2 0x881 JUMP JUMPDEST PUSH2 0xD21 PUSH1 0x20 DUP4 ADD DUP7 PUSH2 0xCF2 JUMP JUMPDEST PUSH2 0xD2E PUSH1 0x40 DUP4 ADD DUP6 PUSH2 0x881 JUMP JUMPDEST PUSH2 0xD3B PUSH1 0x60 DUP4 ADD DUP5 PUSH2 0x881 JUMP JUMPDEST SWAP6 SWAP5 POP POP POP POP POP JUMP INVALID LOG2 PUSH5 0x6970667358 0x22 SLT KECCAK256 MCOPY 0xB9 ADDRESS POP 0xAB 0xE2 0x25 PUSH9 0xB466159ABCC56E278D PUSH4 0xCA6E6012 PUSH0 0x4C DUP16 SIGNEXTEND 0xDF INVALID 0xF7 0xF7 SWAP16 0xAF PUSH5 0x736F6C6343 STOP ADDMOD BYTE STOP CALLER "
				},
				"gasEstimates": {
					"creation": {
						"codeDepositCost": "690000",
						"executionCost": "infinite",
						"totalCost": "infinite"
					},
					"external": {
						"appointmentCount()": "2491",
						"appointments(uint256)": "infinite",
						"bookAppointment(uint256)": "infinite",
						"depositAmount()": "2448",
						"markAsAttended(uint256)": "infinite",
						"owner()": "2505",
						"resolveAppointment(uint256)": "infinite"
					}
				},
				"methodIdentifiers": {
					"appointmentCount()": "eebc3fb2",
					"appointments(uint256)": "12dc9013",
					"bookAppointment(uint256)": "c645e739",
					"depositAmount()": "419759f5",
					"markAsAttended(uint256)": "a901a3d7",
					"owner()": "8da5cb5b",
					"resolveAppointment(uint256)": "78e8faa6"
				}
			},
			"storageLayout": {
				"storage": [
					{
						"astId": 12,
						"contract": "simple-token/appointment.sol:CalendlyDApp",
						"label": "owner",
						"offset": 0,
						"slot": "0",
						"type": "t_address_payable"
					},
					{
						"astId": 14,
						"contract": "simple-token/appointment.sol:CalendlyDApp",
						"label": "depositAmount",
						"offset": 0,
						"slot": "1",
						"type": "t_uint256"
					},
					{
						"astId": 19,
						"contract": "simple-token/appointment.sol:CalendlyDApp",
						"label": "appointments",
						"offset": 0,
						"slot": "2",
						"type": "t_mapping(t_uint256,t_struct(Appointment)10_storage)"
					},
					{
						"astId": 21,
						"contract": "simple-token/appointment.sol:CalendlyDApp",
						"label": "appointmentCount",
						"offset": 0,
						"slot": "3",
						"type": "t_uint256"
					}
				],
				"types": {
					"t_address_payable": {
						"encoding": "inplace",
						"label": "address payable",
						"numberOfBytes": "20"
					},
					"t_bool": {
						"encoding": "inplace",
						"label": "bool",
						"numberOfBytes": "1"
					},
					"t_mapping(t_uint256,t_struct(Appointment)10_storage)": {
						"encoding": "mapping",
						"key": "t_uint256",
						"label": "mapping(uint256 => struct CalendlyDApp.Appointment)",
						"numberOfBytes": "32",
						"value": "t_struct(Appointment)10_storage"
					},
					"t_struct(Appointment)10_storage": {
						"encoding": "inplace",
						"label": "struct CalendlyDApp.Appointment",
						"members": [
							{
								"astId": 3,
								"contract": "simple-token/appointment.sol:CalendlyDApp",
								"label": "client",
								"offset": 0,
								"slot": "0",
								"type": "t_address_payable"
							},
							{
								"astId": 5,
								"contract": "simple-token/appointment.sol:CalendlyDApp",
								"label": "deposit",
								"offset": 0,
								"slot": "1",
								"type": "t_uint256"
							},
							{
								"astId": 7,
								"contract": "simple-token/appointment.sol:CalendlyDApp",
								"label": "startTime",
								"offset": 0,
								"slot": "2",
								"type": "t_uint256"
							},
							{
								"astId": 9,
								"contract": "simple-token/appointment.sol:CalendlyDApp",
								"label": "attended",
								"offset": 0,
								"slot": "3",
								"type": "t_bool"
							}
						],
						"numberOfBytes": "128"
					},
					"t_uint256": {
						"encoding": "inplace",
						"label": "uint256",
						"numberOfBytes": "32"
					}
				}
			},
			"userdoc": {
				"kind": "user",
				"methods": {},
				"version": 1
			}
		}
	}
}